S00F00006E63705F3332434E2E7333374F
S214004000C00A00200D4D0000094D0000094D0000BB
S214004010417B0000094D0000094D0000094D0000DD
S214004020094D0000094D0000094D0000094D000033
S214004030094D000078440300094D0000094D0000BA
S214004040094D0000094D0000094D0000094D000013
S214004050094D0000094D0000094D0000094D000003
S214004060094D0000094D00002D880000094D000094
S214004070094D0000094D0000094D0000094D0000E3
S214004080094D0000094D0000094D0000094D0000D3
S214004090094D0000FD520000094D0000094D0000CA
S2140040A0094D0000FD530000D5530000094D0000E7
S2140040B0094D0000094D0000094D0000C93D0300F0
S2140040C0693D0300653D0300C9340300C53D030098
S2140040D06D3D03008D3D0300713D0300491C030048
S2140040E0053E0300094D0000094D0000094D000083
S2140040F0094D0000D9790000094D0000094D000067
S214004100094D0000094D0000094D0000094D000052
S214004110094D0000094D0000094D0000094D000042
S214004120094D0000094D0000094D0000094D000032
S214004130094D000010B5054C237833B9044B13B174
S214004140044800E000BF0123237010BDA80F002024
S21400415000000000D074030008B5034B1BB10349F0
S214004160034800E000BF08BD00000000AC0F0020C0
S214004170D0740300154B002B08BF134B9D46A3F5C8
S214004180803A00218B460F461348144A121A30F024
S21400419084F80F4B002B00D098470E4B002B00D016
S2140041A098470020002104000D000D48002802D08A
S2140041B00C4800E000BF30F009F82000290000F0AD
S2140041C033F82FF0EFFF00BF00000800C00A002001
S2140041D00000000000000000A80F0020F8320020B9
S2140041E000000000000000007047704738B54378B4
S2140041F00446012B05D0022B0AD0002201201146CE
S21400420002E0421C01780020BDE8384000F006BA03
S214004210451C01782A46002000F000FA294620783E
S214004220BDE8384000F0FDB908B504F01CFBFFF708
S214004230DBFF04F025FBFFF7D8FF03F083FDF8E76C
S21400424008B506480BF04EFE05480BF07DFE15F04F
S2140042501FFABDE8084019F073BD00BFA84603006A
S2140042607446030000B5C3B00BF096FF0BF0BFFF1B
S21400427048B100F00DFA30B101A824F066FC10B980
S21400428001A800F0D1F943B05DF804FB00F02BBDA7
S21400429008B50421002002F0AFF90721084602F015
S2140042A0ABF90721082002F0A7F907211C2002F02D
S2140042B0A3F90721242002F09FF90721252002F008
S2140042C09BF9002008BD000007B501A802F09CFE7F
S2140042D0294B9B6DDB0318D4284A136823F4FF038D
S2140042E023F4FE4343F4BC1343F4A063136052F874
S2140042F0043C23F4704343F4404342F8043C52F831
S214004300043C43F4E06342F8043C9DF80530012B7E
S2140043100FD19DF8043063B94FF000531B68184B5B
S2140043201B68184B1B68184B1B68184B1B68184BF0
S2140043301B68184AD2F8803043F00303C2F8803076
S21400434003F046F900F0DFFC03F0F2F803F05EF944
S21400435003F0F6F803F022F9FFF79AFF03F0D7F818
S21400436000F0CAFC01F05EF803F0FCFE03F058FC17
S21400437003B05DF804FB00BF00C0004034C000403E
S214004380004000200080002000C000200000012027
S214004390004001200080004000F080B808B503F01F
S2140043A0A7FF03F035F907F003FDBDE8084003F06A
S2140043B027BB08B503F070F803F07AF803F098F816
S2140043C0BDE80840FFF73CBF08B500F065FABDE859
S2140043D0084000F0AFB8704700F044BCFFF742BF9B
S2140043E000F0B8B8012070470120704710B50BF0F8
S2140043F03FFF044600F0B4F9002808BF002400F090
S21400440061FC002808BF0024FFF7ECFF002814BF5B
S2140044102046002010BD38B504F05AF904460BF0CB
S21400442035FF042825D002284FF0000508BF0124D8
S21400443000F0AEF904281ED0022808BF012400F0C0
S21400444037FC042819D0022808BF012401F07CFD9F
S214004450042814D0022808BF0124FFF7C5FF04284B
S2140044600FD0022808BF0124002D18BF00242046C4
S21400447038BD0125DCE70125E1E70125E6E7012552
S214004480EBE70024F3E7000018B1034B18600020A8
S21400449070472520704700BFE40F002010B5054C7C
S2140044A00549206801F018FB2068BDE81040FFF7BA
S2140044B0EBBF00BFF40A0020D00A0020014B1868AA
S2140044C0704700BFE40F002038B502F0DCFA084C55
S2140044D005462046002130F8022B2FF0DEFE002392
S2140044E02846238084F80631BDE8384002F0D1BA69
S2140044F0EA0F002038B502F0C6FA084C05464FF41D
S2140045008272A01C00212FF0C8FE002328462380BC
S21400451084F80631BDE8384002F0BBBA1C11002012
S214004520002208B511464A2023F0CAFBBDE8084021
S214004530FFF7CABF08B5FFF7C7FFFFF7DBFF00F0BE
S21400454005FA0022014B1A7008BD00BFE80F0020D4
S214004550012070472B4970B591F806312A4C3BB3C1
S2140045602A4E327822BB94F806310BBBD1F80200F3
S21400457081F80631264A20F47F4323F0070393424E
S2140045802DD18A7932B3881DFFF730FE23F09AFFCB
S2140045900546FFF799FF01232A683370130203F4D8
S2140045A0E063C2F3072213432946181D00F0B4F94E
S2140045B094F8063123B3154B1A780ABB84F8062103
S2140045C00122208813491A7000F0A6F9BDE8704051
S2140045D0FFF790BF1146012023F068FED6E70E4A8B
S2140045E0934209D18B791BB1881D00F0D9F8CDE72D
S2140045F0012023F079FEC9E7063123F0CBFFC5E79B
S21400460070BD00BFEA0F00201C110020E80F00203C
S2140046102000FF001E1100202000FF0180B223F0C2
S21400462045BE23F051BE0000F8B50646006820F4EB
S2140046307F4020F0070000F017F928BB3046FFF750
S21400464087FF08B33368114D1C0204F4E064C3F31B
S21400465007231C4302F017FA074628880434C0F5DF
S21400466082739C420BD802302246314628442FF0F3
S214004670F0FD2B881C4401232C8085F80631384633
S214004680BDE8F84002F005BAF8BD00BF1C110020D6
S214004690084A1388C3F58273984208D892F8063100
S2140046A02BB9054B93F8060180F0010070470020F7
S2140046B0704700BF1C110020EA0F00200022014BAB
S2140046C01A707047E80F00202DE9F3419046044623
S2140046D000B1FEE78DB202F0D6F91E4F06463888C6
S2140046E02A46C0F582739D4219D8023041463844A6
S2140046F02FF0AFFD3B882B449BB2032B3B8018D991
S214004700D7F8021001240A0202F4E062C1F307217E
S2140047100A4304329A4202D887F8064102243046F9
S21400472002F0B7F9022C06D10B4800F03BFA70B144
S214004730FEE70124F3E7012C09D10023074A009382
S2140047404FF4FA71044800F047FA00B1FEE702B0F1
S214004750BDE8F081EA0F0020F4100020214500009B
S214004760084B93F8060150B9074B93F806311BB96E
S214004770064B187880F0010000F00100704700201A
S214004780FAE700BFEA0F00201C110020E80F002007
S21400479008B5FFF7E5FF00280CBF0420012008BD80
S2140047A0F8B542780378012A19D006D3022A24D015
S2140047B00120BDE8F84023F097BD052BF8D1284A24
S2140047C01378082B47D00021D0F802402548CDB2F8
S2140047D0AB421DD840F823400133137030E0052B60
S2140047E0E6D11F4C2378C3B30021D0F802501D48F1
S2140047F0CAB2934215D82D20DBE7012BD8D1202250
S214004800002118482FF049FD0020154B1870D0E7FE
S214004810013100EB810555F8045CAC42D7D12E205F
S214004820C7E70E46013100EB810757F8047CBD420E
S214004830DED10021013B40F8261023709A4201DBAE
S2140048400020B6E7541C50F8245040F8225040F898
S2140048502410E2B2F2E71C20ABE71B20A9E700BF5A
S214004860441200202412002010B5094B094C197878
S2140048700023DAB2914201D8002010BD013304EBC8
S214004880830252F8042C9042F3D10120F5E700BFD2
S214004890441200202412002038B54FF48272002102
S2140048A016482FF0FAFC4FF48272002114482FF0BD
S2140048B0F4FCFFF703FE13490268134D8A42286092
S2140048C007D0124B9A4217D0A3F500439A4211D054
S2140048D0FEE70D230E4A0F20137001F04FFD2B68E4
S2140048E00446186802F030FCB4FBF0F0094B800078
S2140048F0186038BD0B23EDE70F23EBE746120020C8
S2140049005013002000C0054054140020000006404C
S214004910451200204C130020B0F5827F10B50446E7
S21400492000D9FEE7024606482FF093FC0548064BE2
S21400493022460349006801F0D1FA00B1FEE710BD37
S2140049405013002054140020F54A000010B5164CF1
S214004950164994F9000002F0EDF894F90030002BA7
S2140049600CDB012203F01F015B099B0003F160438F
S2140049708A4003F56143C3F880211A600C4B0D4A48
S21400498018680D4903685A6642F248029950DA6C74
S2140049900A4942F42042DA64094B4FF4827201F06D
S2140049A001FA00B1FEE710BD45120020C54900001F
S2140049B054140020FF002400FFFF010046120020D0
S2140049C0394B00002DE9F843484C23681B689B6C64
S2140049D01B0440F1898002F056F824684FF4004129
S2140049E0236806465A6E22F4E0225A665A6E42F44D
S2140049F080225A6642F24802995002F044F8636AEE
S214004A0007469B889BB243B902F043F8FFF79EFF28
S214004A103046BDE8F84302F03CB8E06800F004FC1D
S214004A200023656A84F82C3002F02DF8AB889BB220
S214004A30002BE9D04FF01409B5F8028002F029F8EF
S214004A401FFA88F809FB08F808F110012944E06805
S214004A5000F032FC264B4544AB61656AAB889BB2DE
S214004A6093B994F83130032B0CD042F2AC520421A7
S214004A7023795B0103F1804303F5703399500222DA
S214004A8023685A613846BFE701F0FDFFB5F8048099
S214004A901FFA88F8B8F1000F04D101F0FAFFD8F831
S214004AA00C30FFDEB5F802806B88E9885A1C92FB52
S214004AB0F1F301FB13239BB26B80AB881FFA88F8D7
S214004AC0013B9BB2AB8009FB085501F0E2FFD5F82D
S214004AD01480B8F1000FC0D0EA682B690021D31A01
S214004AE02046AA68C047B8E7BDE8F88354140020FB
S214004AF0097000F0F8B507460D4600240C4E3846FF
S214004B0000F02CFF830605D43268A3B29A4204F163
S214004B100104F4D8281C18BF0120FFF7CFFDBDE81C
S214004B20F8404FF48272002102482FF0B6BB00BF57
S214004B304C1300205013002008B5081C18BF012095
S214004B401946FFF7C1FDBDE808404FF48272002108
S214004B5001482FF0A2BB00BF461200200021094AE0
S214004B6013684BB1834204D1036A49B10B6201203A
S214004B70704719461B6AF4E70028F5D018467047B8
S214004B801360F4E75814002091F8243033B9012359
S214004B90034A81F82430136801331360704700BF5E
S214004BA05C14002010B5044690B103F0DBFB2046F1
S214004BB0FFF7D4FF58B194F8240040B101F063FF2A
S214004BC0044A1368013B136001F063FF002010BD28
S214004BD02220FCE75C1400202DE9FF4104469046A5
S214004BE01F469DF828500E4609B9002D33D12046A1
S214004BF0FFF7D8FF60BB84F8240003A93046A5B1B0
S214004C0003F09CFC20BBCDE900002346134A039921
S214004C10204603F028FCD8B9114AC4E90687136871
S214004C2084F8255073B9146010E003F087FC78B957
S214004C30CDE900552346094A0399204603F0F0FBC8
S214004C40E9E713461A6A002AFBD11C620023236296
S214004C5004B0BDE8F0812120FAE700BF894B0000D0
S214004C605814002070B5104D2B681BB100260F4B52
S214004C701C6804B970BD94F8243093B101F003FFAA
S214004C802B6884F82460013B2B6001F002FF94F847
S214004C90253013B92046FFF761FFD4E906312046D8
S214004CA09847246AE5E700BF5C14002058140020EB
S214004CB0034B1B68002B0CBF01200420704700BF6D
S214004CC05C140020024B1868B0FA80F04009704768
S214004CD05C140020042208B511460123032001F0CD
S214004CE0CFFF002008BD042208B51146002303208C
S214004CF001F0C6FF002008BD08B5FFF7C7FABDE8FB
S214004D000840FFF7E7BF7047FEE7000008B500F071
S214004D1013F8064A064B07498B4201D3FFF72AFAD7
S214004D2052F8040F43F8040BF6E700BFD4740300F0
S214004D30C00A0020A80F0020044B054A9A60D3F84A
S214004D40882042F47002C3F88820704700ED00E027
S214004D5000400000014B1868704700BFFC0B0020A5
S214004D60014B1860704700BFFC0B0020084B1B6F00
S214004D7003F00703022B04D0032B05D0012B05D02C
S214004D80FEE7044B18687047034BFBE70348704781
S214004D9000800040FC0B0020000C0020002D31019C
S214004DA008B5FFF7E3FF054B1B6FC3F30133013371
S214004DB0B0FBF3F0024B186008BD00BF0080004057
S214004DC0F80B00200048704700B4C404014B186874
S214004DD0704700BF000C0020054B1860054B1B6F8A
S214004DE003F00703032B01D1FFF7DABF704700BFBC
S214004DF0000C0020008000400020704700487047EC
S214004E00002D3101174B9868C0F304400C2826D8B3
S214004E10DFE800F0092525252525071B1D251F2170
S214004E202300114870479B6803F04073B3F1807FFE
S214004E3007D0B3F1007F06D00C4A002B08BF1046FF
S214004E4070470B4870470B4870470B4870470B4835
S214004E5070470B4870470B4870470B487047002058
S214004E60704700BF0040014A405DC60000093D0093
S214004E7080841E0040420F000024F400C0EA210196
S214004E8080BA8C010048E801005A62024FF40040E4
S214004E9070474FF47A707047014B1868704700BF30
S214004EA0040C002028231B68B3F5804F03D2196832
S214004EB0064A914203D000230370836070470122A4
S214004EC002709A689B694260F7E700BF07B0CD5E44
S214004ED000230360704703680B60016070470000A2
S214004EE0054A06491368184488428CBF4FF0FF33C2
S214004EF010601846704700BF080C00200080012094
S214004F002DE9F04F9B46584B85B01B7806468946E0
S214004F101546109F9DF844A0DDF85080002B00F049
S214004F209280072A00F291800E9B002B00F08D8065
S214004F300F9B002B00F08980129BB3F5006F00F3E7
S214004F408480012801D1002F7FD0484B03EB051346
S214004F501B7B002B7BD0464C1022002168462FF08E
S214004F609CF904EB45141022B9F1000F5CD14946B8
S214004F7020462FF092F9A37843F01003A370E3784D
S214004F8043F03003E370BAF1000F03D1DBB243F015
S214004F900303E37036496A01129B885A013B63F3A8
S214004FA00E100E9B01EB020C8852CCF808300F9BBB
S214004FB09DF84C10CCF804309CF80330012E61F3B9
S214004FC08303CDF800B08CF8033042D113230CF1E4
S214004FD0100ECCF80C309CE80F008EE80F006FF037
S214004FE00301DCF81C20B9F1010F61F39F02CCF835
S214004FF01C20CCF8147004D10F9BCCF80470CCF8AD
S2140050001830002719492A018B1841F80280159A92
S21400501028465A609F605E732246694601F0ACFEE1
S214005020384605B0BDE8F08F002120462FF035F950
S2140050301023A3700323E370BAF1000FAAD1DBB2EA
S21400504043F03003A5E70B48EBE70B48E9E70B48CE
S214005050E7E7B8F1000FD4D19CF8023068F30413E8
S2140050608CF80230CDE700BFE01500206014002069
S214005070E0140020028000F0018000F0078000F0BD
S21400508038B5104B05461B78BBB1C0B101F0FBFC30
S21400509000230D4901EB0312147B3CB92B6001235E
S2140050A01460137301F0F5FC204638BD0133082B5D
S2140050B0F0D101F0EEFC0548F7E70548F5E70548AE
S2140050C0F3E700BFE015002060140020048000F025
S2140050D0028000F0018000F0154B13B5186800231D
S2140050E001908DF8043001F0CEFC124B1C7824B1F0
S2140050F001F0CFFC104802B010BD01221A7001F07A
S214005100C8FC0E4B01A81C731C7783F82C4083F850
S2140051103C4083F84C4083F85C4083F86C4083F84E
S2140051207C4008238DF8073001F0FCFD2046E2E7BE
S214005130D8460300E0150020038000F0601400202D
S21400514010B588B00E9C009207940D9C02460694FB
S2140051509DF8304005940B9C04949DF828400394D9
S2140051600024CDE9013420460B462146FFF7C8FE51
S21400517008B010BD10B588B00E9C009207940D9C28
S214005180024606949DF8304005940B9C04949DF8C6
S214005190284003940024CDE9013420460B46012123
S2140051A0FFF7AEFE08B010BD08B50A4B1B785BB122
S2140051B007280BD8084B03EB00131B7B43B10021D9
S2140051C001F0A0FD002008BD0448FCE70448FAE70B
S2140051D00448F8E7E015002060140020028000F084
S2140051E0018000F0078000F008B50A4B1B785BB121
S2140051F007280BD8084B03EB00131B7B43B1012198
S21400520001F080FD002008BD0448FCE70448FAE7EA
S2140052100448F8E7E015002060140020028000F043
S214005220018000F0078000F008B50A4B1B7853B1E8
S21400523007280AD8084B03EB00131B7B3BB101F091
S214005240EBFD002008BD0548FCE70548FAE70548E1
S214005250F8E700BFE015002060140020028000F090
S214005260018000F0078000F00D4B1B7893B10728F3
S21400527012D889B10B4B03EB00131B7B73B10A4B9F
S214005280DA6A012303FA00F010401ABF00200B7000
S21400529008707047054870470548704705487047CE
S2140052A0E01500206014002000000440028000F09A
S2140052B0018000F0078000F00B4B10B51B780C4601
S2140052C063B107280CD859B1084B03EB00131B7BBE
S2140052D043B101F0B3FD2060002010BD0448FCE798
S2140052E00448FAE70448F8E7E015002060140020B8
S2140052F0028000F0018000F0078000F02DE9F843FE
S214005300174B1F6D5B6D1F4000D5FEE7012600257D
S214005310144CDFF85480DFF85490374217D02368D7
S214005320C8F800609BB1A16862680131A160284698
S2140053309847637B012B0AD148B909EB4513197BC3
S2140053401A7F60F3410160F3410219731A77013541
S214005350082D4FEA460604F11004DED1BDE8F883B6
S214005360000004406014002050200440E014002098
S21400537070B504460125084E04B970BD94FAA4F031
S214005380B0FA80F005FA00F324EA030456F8203059
S214005390002BF1D09847EFE7E41500204FF000729D
S2140053A0044BC3F880211A604FF08062C3F8802156
S2140053B01A60704700E100E038B504460D4601F07B
S2140053C062FB034B43F82450BDE8384001F061BB54
S2140053D0E4150020084BD3F82404D3F8202410400A
S2140053E042F2204220F42A5020F02A004004400CCA
S2140053F09850FFF7BDBF00BF00C00340084BD3F86E
S2140054002404D3F82024104042F2204220F4AA407C
S21400541020F055000004000C9850FFF7A9BF00BF0D
S21400542000C00340024B1968024B18680AF008B81F
S214005430100C00200C0C00207047000070B5940083
S214005440224605460E462FF007F8431C02D018B138
S214005450064800E0064870BD2246314628462EF033
S214005460E9FE0028034808BF0020F4E724E000F027
S21400547021E000F010E000F013B5044601A801F0AA
S214005480C3FD9DF80630012223804FF48073002070
S2140054906380054B9B680A3303F01F0302FA03F38D
S2140054A0636002B010BD00BF0080E00F01F0F0BCEA
S2140054B008B501F0E1FC002008BD10B5044644EA3A
S2140054C0010313F00303084609D1934201D10020DB
S2140054D010BD54F8231040F823100133F5E792006E
S2140054E021462EF0B6FEF2E710B504462EF0BCFFBD
S2140054F0431C02D018B10C4800E00C4810BD0C4B01
S21400550020469B680A3303F01F020123934023F0D2
S21400551003032344984201D10020EFE750F8042B00
S2140055200132F7D00348E9E724E000F021E000F07C
S2140055300080E00F0EE000F008B501F09DFA014B88
S214005540186008BD302D0020014B186801F098BA8D
S214005550302D00200A460139014402F0A1BA042287
S21400556003685A619A699207FCD541F2AC52102141
S21400557003795B0103F1804303F57033995070475C
S214005580012203685A619A69D207FCD541F2AC52EF
S214005590042103795B0103F1804303F570339950CE
S2140055A07047000038B141B1013AB2F5006F0448C7
S2140055B038BF00207047034870470148704700BF57
S2140055C0037000F0027000F038B504460D4601F096
S2140055D05AFAA28892B222B92A6001F05AFA06480C
S2140055E038BD1422638802FB034308332B6001F0A6
S2140055F050FA0020F4E700BF0B7000F038B5044600
S2140056000D4601F040FAA3889BB223B92B6001F047
S21400561040FA0C4838BD14226388E18802FB034335
S21400562008332B6063885A1C92FBF1F301FB1323AB
S2140056309BB26380A388013B9BB2A38001F029FA4A
S2140056400020E7E70B7000F02DE9F041044617460E
S214005650884601F018FAA388E28805469A4206D8DA
S21400566000233B6001F015FA1148BDE8F0811426CE
S2140056702088324606FB0040414608302EF0E9FD01
S2140056802288238806FB0242E18808323A605A1CC8
S21400569092FBF1F301FB13239BB22380A3882846D9
S2140056A001339BB2A38001F0F4F90020DDE700BFD0
S2140056B00A7000F090F83130022B0BD13022437F75
S2140056C090F821005A43044B9B5823FA00F000F050
S2140056D0010070470020704714C00340002313B534
S2140056E01C4A52F8234094F8211081420ED0013310
S2140056F0042BF6D102B010BD0028FBD19DF8073070
S214005700002BF7D0A068FFF74FFDF3E794F8313091
S214005710022BEFD12046FFF7CDFF637E2076022BCB
S214005720E8D194F82E3003F0FF02002BE2D102A954
S21400573001F8012DA068FFF797FD237E1BB194F8B2
S2140057402F30002BD8D00023A06884F82F30FFF726
S2140057504BFDCFE7641C002038B5044601F093F9F2
S214005760616B05460139616319B9044A012002F0EC
S21400577087FA2846BDE8384001F08BB91C4703007D
S21400578038B5044601F07FF9636B054623B901215D
S214005790054A084602F074FA636B284601336363D1
S2140057A0BDE8384001F075B91C4703002DE9F0410B
S2140057B0012790F8328086B004460E4680F82C709A
S2140057C0B8F1000F14D1036803F12405FFF7D8FFE2
S2140057D0094B0494CDE9028373683268CDE90073FF
S2140057E061692B46E068FFF7C5FC06B0BDE8F081AE
S2140057F0002380F82C30F8E7FD5D00000123F0B5AB
S21400580080F82D3090F8323089B004460E4663BBDF
S214005810056801F038F90DF11F01074615483C35BB
S21400582002F0E2FD40B99DF81F302BB1114802F09E
S21400583099FD2046FFF790FF3846012701F029F929
S214005840204684F83870FFF79BFF0B4B04940393B5
S2140058500023029373682A46CDE9007321693368F2
S214005860A068FFF76DFC09B0F0BD002380F82D306E
S214005870F9E700BFE42D00207D580000F0B585B0A4
S21400588003A9906A1446FFF79FFE0646206801F0BB
S2140058905BFC054602F04CFE24214143B1FBF5F1CA
S2140058A000252346CDE90055164A0131164802F078
S2140058B0B7FD164B9E421FD0039B1D619D6001F0F5
S2140058C0E2F8039A0746D66826B1D2E900232946AD
S2140058D02046B04703A9A06AFFF790FEA06A838817
S2140058E09BB263B103A9FFF76FFE03992046FFF74B
S2140058F085FF384601F0CDF8012005B0F0BD84F8EC
S2140059002D30F6E711590000E42D00200B7000F052
S21400591073B508680D46846914F0200407D008465D
S214005920FFF71AFF022385F8383002B070BD01F089
S2140059300BFC064602F0FCFD24225043B0FBF6F0BA
S214005940CDE90044411C2B46024A034802F068FD9C
S214005950EBE700BF11590000E42D002003689869AA
S21400596070472DE9F04104460F461546FFF71AFE2C
S214005970064678BB152001F09DF88046A26A9388FB
S2140059809BB213B194F82E303BB323689B6913F097
S214005990020802D12046FFF7E2FD012384F83030EA
S2140059A094F8323033B93D44AF4220681BD1836946
S2140059B09B06FCD5B8F1000F0CD142F2AC52102178
S2140059C023795B0103F1804303F570339950082275
S2140059D023685A613046BDE8F081B8F1000FCED09A
S2140059E0FFF78CFCCAE717F8011B01F07BFCDBE72E
S2140059F010B5044680B190F82E302BB9FFF75AFE4A
S214005A0010B9A068FFF7D0FB002094F82E300133C1
S214005A10DBB284F82E3010BD0048FCE7027000F0C0
S214005A2010B50446A0B190F82E309BB190F82E30F9
S214005A30012B05D1FFF73EFE10B9A068FFF7D4FB97
S214005A40002094F82E30013BDBB284F82E3010BDD7
S214005A500148FCE70148FAE7027000F0057000F024
S214005A6037B590F831500446022D1ED1012190F82A
S214005A702220457E837F01FA02F23020154925B99F
S214005A8000FB031342F2100105E0012D07D100FBD5
S214005A90031341F210015A50002003B030BD247E9B
S214005AA000FB0313002CF4D1ECE7012DF4D1037EA8
S214005AB073B911238DF80730FFF79AFF2A460DF1C8
S214005AC007012046FFF74DFF2046FFF7A9FFE3E753
S214005AD01323EFE700C00340F0B504468BB0A34F96
S214005AE003AE0D460FCF0FC697E8070086E80700FF
S214005AF01CB99F4C20460BB0F0BD0DB99D4CF9E784
S214005B003C22002120462EF0C8FB00239A496363FE
S214005B100A789A4B2AB9C3E90022C3E90222012275
S214005B200A70002253F822108C420AD00132042A4E
S214005B30F8D1002253F82210002940F0D08043F814
S214005B4022402B7D286884F831300023206084F8BA
S214005B5032302B7B2371012384F83830884B9842EF
S214005B6040F0C280212384F82330864B23614FF413
S214005B70802300266361D5E907236262168056807B
S214005B80968084F82C60A3621E805E809E806B6880
S214005B9003A90593EB8984F82D60ADF81C302B8A99
S214005BA084F82F60ADF81A30AB7C8DF80C608DF859
S214005BB01830EB7C8DF81E3005238DF8193001F077
S214005BC019FB14212A7B704B287A03EB4217C7F87F
S214005BD0AC15A97A2E3240EA014C03EB4213C3F807
S214005BE004C06A7AEB7A42EA034CC7F8BCC5E17790
S214005BF084F820306B7DE07622776377AB7D0422D5
S214005C0084F82130EB7DA3772B7E84F822300123A5
S214005C1001F036F80123022294F82010207F01F0CC
S214005C202FF894F83130022B75D13346012294F8C0
S214005C302110607F01F024F83346042294F82210E5
S214005C40A07F01F01DF8012394F82120607F114603
S214005C50CDE9003300F0BAFF00F015FF2E7D0746B1
S214005C60032E69D141F2AC5202212B7B04205B014A
S214005C7003F1804303F57033995041F25C022968C2
S214005C808850297EEA7D42EA014241F2B8515A50D4
S214005C90A97D6A7D42EA014241F2B4515A504FF062
S214005CA0FF3242F248032868C2502B7D032B0CBFFC
S214005CB00521042101F058FA4FF440622B685A611E
S214005CC0FFF70AFA002104F10800FFF7D9F90146A8
S214005CD0002842D02D4C384600F0DBFE0AE70132A1
S214005CE0042A7FF427AF04E7294B984207D12223E2
S214005CF084F82330274B23614FF4A02339E7264B43
S214005D0098427FF4FBAE232384F82330234B236191
S214005D104FF4C0232DE7032B9ED1334694F8211071
S214005D20607F012200F0ACFF3346042294F8221074
S214005D30A07F00F0A5FF8FE7022EB0D194F82100D7
S214005D401749FFF739FBFFF729FB00236676A37692
S214005D5023762046FFF784FEA1E704F10C00FFF748
S214005D608FF904460028B6D0B4E700BF004703000A
S214005D70027000F0037000F0741C0020641C002009
S214005D80008005400200040000C003400E7000F0D2
S214005D9000C00540020005000000064002000600A4
S214005DA0DD560000F0B587B004461646FFF7FAFB4E
S214005DB00546E8B90493104BCDE901166A4601A9D9
S214005DC0606A03960593FFF73FFC054680B994F892
S214005DD02C306BB92046FFF7D3FB0099FFF7E6FCA3
S214005DE094F83130032B03D025762046FFF738FE93
S214005DF0284607B0F0BD00BF017000F073B5506ACA
S214005E0001A91446FFF7E0FB05462046FFF7A4FC71
S214005E102F4B9D4230D094F83200019B002839D198
S214005E202268916C11F4007129D02A499860196192
S214005E3042F248034FF40071D15000F024FE01995D
S214005E400646CD6835B14A688B682046D31A0A687C
S214005E500969A84701A9606AFFF7D0FB606A8588D0
S214005E60ADB2DDB101A9FFF7AFFB01992046FFF700
S214005E709DFC304600F00DFE012002B070BD906C17
S214005E80C00507D51448996018614FF4807142F236
S214005E904803D1E700221A619A60CEE70123204624
S214005EA02376FFF7DDFD94F8313084F82C50032B71
S214005EB0DFD042F2AC52042123795B0103F1804328
S214005EC003F570339950022223685A61D1E700BF68
S214005ED00B7000F00D7000F00C7000F0F0B587B09D
S214005EE004461646FFF75EFB054638BB0493154B83
S214005EF0039605932368CDE901169B699B0702D498
S214005F002046FFF72CFB6A4601A9A06AFFF79CFB18
S214005F10054698B994F82D3083B900F0B4FDA36A0D
S214005F2006469B889BB233B100992046FFF766FC75
S214005F30012384F83030304600F0ABFD284607B029
S214005F40F0BD00BF017000F00B4B30B51B788BB175
S214005F50012000230546094C54F8232032B192F85C
S214005F603810022904BF084682F838500133042B43
S214005F70F2D130BD0120FCE7741C0020641C002018
S214005F802F4B984245D017D82E4B984238D007D87A
S214005F902D4B984234D02D4B984231D0002070477C
S214005FA02B4B98422FD02B4B98422FD02A4B9842FF
S214005FB0F4D12A4B586E7047294B984234D00FD8EC
S214005FC0284B984228D0284B984229D0A3F537036F
S214005FD0A3F5D8539842E1D1204BD3F88000704700
S214005FE0224B984224D003F5740303F510539842CD
S214005FF022D01F4B9842D1D1184BD3F8900070474F
S214006000164B986D7047154B186F7047134B586FAB
S2140060107047124B986F7047104BD3F88400704748
S2140060200E4BD3F8880070470C4BD3F88C007047A3
S2140060300A4BD3F894007047084BD3F89800704783
S214006040C0EA210100093D0040420F0080841E0086
S214006050405DC6000024F400C0CF6A000080E00F58
S214006060006CDC020048E80180D543020090D003B3
S214006070007E560338B5124B0546D3F820310C4641
S21400608003F00703013B032B17D8DFE803F0020AEF
S2140060900E12FEF75FFE042305B1286004B12370DC
S2140060A038BDFEF793FE0323F6E7FEF7ABFE0523A7
S2140060B0F2E7FEF7A3FE0223EEE700231846EBE71F
S2140060C00080004037B50C460021114B0191D3F8F3
S2140060D08031054603F00303022B0ED0032B11D0AC
S2140060E0012B03D101A8FFF7C5FF0D210DB1019BC0
S2140060F02B6004B1217003B030BDFEF783FE05218E
S2140061000190F3E7FEF77AFE02210190EEE700BF6A
S2140061100080004038B5104B0546D3F840310C4699
S21400612003F00303022B0BD0032B0DD0012B0FD152
S214006130FEF7ACFE082305B1286004B1237038BD15
S214006140FEF7AAFE0723F6E7FEF7A3FE0923F2E70B
S21400615000231846EFE700BF0080004038B5104B1C
S2140061600546D3F860310C4603F00303022B0BD030
S214006170032B0DD0012B0FD1FEF788FE082305B1A7
S214006180286004B1237038BDFEF786FE0723F6E7C5
S214006190FEF77FFE0923F2E700231846EFE700BF6D
S2140061A00080004038B5134B0546D3F800320C4645
S2140061B003F00703013B032B18D8DFE803F0020ABD
S2140061C00E12FEF763FE082305B1286004B12370A3
S2140061D038BDFEF761FE0723F6E7FEF75AFE0923F1
S2140061E0F2E7FEF7DDFD0C23800AEDE700231846F4
S2140061F0EAE700BF0080004038B5134B0546D3F8E9
S21400620008320C4603F00703013B032B18D8DFE8DF
S21400621003F0020A0E12FEF739FE082305B12860C5
S21400622004B1237038BDFEF737FE0723F6E7FEF706
S21400623030FE0923F2E7FEF7B3FD0C23800AEDE7F4
S21400624000231846EAE700BF0080004038B5104B30
S2140062500546D3F840320C4603F00303022B0BD05E
S214006260032B0DD0012B0FD1FEF710FE082305B12E
S214006270286004B1237038BDFEF70EFE0723F6E74C
S214006280FEF707FE0923F2E700231846EFE700BFF4
S2140062900080004038B5104B0546D3F800310C4658
S2140062A003F00303022B0BD0032B0DD0012B0FD1D1
S2140062B0FEF78CFD032305B1286004B1237038BDBA
S2140062C0FEF7EAFD0723F6E7FEF796FD0623F2E75C
S2140062D001230020EFE700BF0080004041F6713246
S2140062E00F4B10B5D969DA639A680E4C22F4401247
S2140062F0A04288BF42F480129A600B4A0B4CD2F838
S2140063001832A04223F0020388BF43F0020301F4D0
S2140063108031C2F8183211B10022014BDA6310BD89
S21400632000000340C017530200C0074080F0FA0286
S21400633008B5FEF747FDBDE80840FFF7CFBF0000F1
S21400634002280CD007D8012814D10B4B186FC0F3C5
S214006350013001307047032807D00F28F4E7064BBA
S214006360D3F89000C0F30460F3E7034B186FC0F354
S2140063708020EEE70020ECE700800040002307B511
S2140063800193252817D8DFE800F0131A1D262B35B1
S2140063903A3F44494E535866161A3F1616441A2674
S2140063A02B26351A3F26663A3A3A3A262626494E8C
S2140063B0FEF7DCFC0190019803B05DF804FBFEF7E5
S2140063C0EFFCF7E7FEF7D2FC02460220FFF7B8FF25
S2140063D0B2FBF0F0EEE7FEF7E3FC02460320F5E73B
S2140063E0FEF7DEFC02460320FFF7AAFFB2FBF0F042
S2140063F04008DFE7002101A8FFF764FEDBE7002185
S21400640001A8FFF737FED6E7002101A8FFF782FEB6
S214006410D1E7002101A8FFF7A1FECCE7002101A8E3
S214006420FFF7C0FEC7E7002101A8FFF7E5FEC2E7B9
S214006430002101A8FFF72EFFBDE7094BD3F88030F7
S21400644003F00303022BBAD0032B01D00020B1E7E0
S214006450FEF7D8FCAEE7002101A8FFF7F7FEAAE793
S2140064600080004002280AD002D8012804D07047D5
S21400647003280FD00F2815D1084600F02BB80A4A7B
S2140064800139D2F8903023F0F85343EA0161C2F89C
S21400649090107047044A0139136F23F4806343EA6F
S2140064A081211167704700BF008000400221032051
S2140064B0FFF7D8BF08B50120FFF760FFBDE808402A
S2140064C0034988428CBF022101210320FFF7CABF7F
S2140064D080F0FA0210B50446FFF72AFFFFF7E6FF42
S2140064E0074A013C106F20F4405040EA0430106721
S2140064F0FEF756FCFFF7F2FEBDE81040FFF7DABFE6
S21400650000800040002307B58DF80730252822D8E4
S214006510DFE800F013212121212C32383E444A5076
S214006520566921213821213E212121212C21382183
S2140065306932323232212121444A2E4B1B6F03F03E
S2140065400703013B032B06D8DFE803F00E020A0C14
S21400655004238DF807309DF8070003B05DF804FBB0
S2140065600323F6E70623F4E70223F2E70DF107011B
S2140065700020FFF7A7FDEEE70DF107010020FFF76B
S21400658079FDE8E70DF107010020FFF7C3FDE2E71C
S2140065900DF107010020FFF7E1FDDCE70DF1070133
S2140065A00020FFF7FFFDD6E70DF107010020FFF7FB
S2140065B023FED0E70DF107010020FFF76BFECAE7C8
S2140065C00C4BD3F8803003F00303022B03D0032BCD
S2140065D005D00023BDE7FEF7E3FB0B23B9E7FEF784
S2140065E011FC0523B5E70DF107010020FFF72EFE8D
S2140065F0B1E700BF0080004070B50C46252849D89A
S214006600DFE810F0260048004800480048005C001C
S2140066106D007E008F00A000B100C200D300E40031
S214006620480048007E00480048008F0048004800A8
S214006630480048005C0048007E004800E4006D000A
S2140066406D006D006D00480048004800A000B100D5
S2140066508B1E042B2FD8DFE803F02B1E032E2800FA
S21400666000250226FFF764FEFFF720FF604A136F3F
S21400667023F0070333431367FEF792FBFFF72EFE64
S214006680FFF718FF35B9032C04D142F22803012185
S214006690584AD15070BD41F228020121554B0326BD
S2140066A09D6A9950C5F34005DCE700250426D9E726
S2140066B000250126D6E700252E46D3E78C1EE4B239
S2140066C00B2C8CBF00214C4B494A98BF195DD2F861
S2140066D0803123F003030B43C2F88031DAE78C1EC7
S2140066E0E4B2032C8CBF0021444B414A98BF195D8D
S2140066F0D2F8203123F007030B43C2F82031C9E754
S214006700CC1FE4B2022C8CBF00213D4B384A98BF08
S214006710195DD2F8403123F003030B43C2F8403131
S214006720B8E7CC1FE4B2022C8CBF0021354B304AB0
S21400673098BF195DD2F8603123F003030B43C2F80B
S2140067406031A7E7CC1FE4B2052C8CBF00212E4B8E
S214006750274A98BF195DD2F8003223F007030B438F
S214006760C2F8003296E7CC1FE4B2052C8CBF00219D
S214006770264B1F4A98BF195DD2F8083223F007034C
S2140067800B43C2F8083285E7CC1EE4B2042C8CBF5B
S21400679000211F4B164A98BF195DD2F8003123F02E
S2140067A003030B43C2F8003174E705290CD00B290C
S2140067B00CBF022100210E4AD2F8803023F00303DA
S2140067C00B43C2F8803065E70321F4E7CC1FE4B240
S2140067D0022C8CBF00210F4B054A98BF195DD2F8DA
S2140067E0403223F003030B43C2F8403252E700BFA7
S2140067F00080004000C000402447030030470300EC
S2140068003447030034470300374703003747030085
S2140068103D4703003447030008B5FFF773FE07281B
S2140068200ABF024B4FF6FF70188808BD300C0020D8
S21400683038B50546FFF7A4FB214B04465A68012AE3
S21400684005D142F204015A509A699207FCD1002001
S214006850FFF758FE042803D1FFF76AFDFFF726FE70
S214006860184B24F040709D4220D0174B9D4220D0FC
S214006870164BDA6812F0060FFBD1996898609A6892
S21400688000F4F81002F4F812904215D12846FEF7EC
S21400689067FA0020FFF736FE04280FD1FEF780FACD
S2140068A0FFF71CFDBDE83840FFF704BE40F000705F
S2140068B0DEE740F08070DBE79960EAE738BD00BFAE
S2140068C000C0014040420F0080841E0000000140CE
S2140068D070B504460020FFF715FE03287DD045F668
S2140068E00E03434A0221C2F8803041F22803D150F9
S2140068F042F228030121D150916D11F48031FBD171
S214006900637820781B0543EA0063A079657C03431F
S214006910E07843EA0043207943EA0033607943EAAB
S214006920801313619369E07A03F000430343E07930
S21400693043EA8063207A43EA0063607A43EA0043CE
S214006940A07A43EA00239361637B126A002B18BF88
S2140069500821207B22F00D0243EA020343EA80036B
S21400696041EA0301A27B224B4FEA42161962207CC1
S21400697034D1996AE27B21F0330141F001013143C1
S21400698041EA0211996219461A4A9E6D32EA0606D3
S214006990FBD141F2280202269E508B6D5B00FCD490
S2140069A00B69A27823F4700343EA02530B614FF09D
S2140069B0004241F21803CA5018B942F228030222D4
S2140069C0CA5025B942F228030121094AD150A37CB6
S2140069D01BB1074B084AC3F8802070BD9A6A22F0A4
S2140069E033022A43324342EA40029A62EFE700BF8C
S2140069F000C0004003000140F1A7FFFFF0B54FF4D0
S214006A00D156194B41788478C278057802275E62A1
S214006A1041F204064F299F5142F204064FF0010747
S214006A2028BF4F219F511E69F603FCD441EA052179
S214006A3059611201417942EA04220A43017942EA85
S214006A4041029A60C2798179120142EA4112417A82
S214006A500A43017A42EA41025A60827A12B16FF41E
S214006A60D1525A62F0BD00BF00000240014B1880B0
S214006A70704700BF300C0020EFF3108072B67047EE
S214006A8000B962B67047EFF31180302383F31188A4
S214006A90704780F311887047054A410900F01F03CC
S214006AA052F82100D840C04300F00100704700BFF4
S214006AB000E100E010B50446EFF31083DB0733D4A3
S214006AC0FFF7EAFF00282ED1002CABBF04F160448C
S214006AD0164B04F5614404F00F04ACBF94F8002391
S214006AE01A5D1209EFF3118313B1B2EB131F1BD219
S214006AF00F4C6368C3F30803ABB1103BDBB259B26B
S214006B000029B5BF03F00F0301F16043043B03F512
S214006B106143B6BF1B1993F80003187E0009824232
S214006B2034BF0020012010BD0120FCE714ED00E07A
S214006B3000ED00E0024B9B6803EB800001647047A9
S214006B4000ED00E0F0B50024059D9DF818709C420D
S214006B5002D10C4B9A60F0BD37B18C420ED250F881
S214006B60246042F8246005E08C4252F8246003D288
S214006B70002EF4D00134EAE7002EFBD142F8245070
S214006B80F8E700BF00ED00E0084A10B513690446B8
S214006B9043F00403136101F033FA30BF01F044FA06
S214006BA01CB9BDE81040FEF7FBB810BD00ED00E0D4
S214006BB0FFF7EABF704770474FF04022D36E017967
S214006BC023F030030B43D36670470000072A2DE9F5
S214006BD0F84305460C46174698461ED803264FEA45
S214006BE08209FFF749FF1F4B05FA09F51A6806FAEE
S214006BF009F65540354055401D60FFF741FFFFF749
S214006C003BFF194B04F003041A6804FA09F45440D5
S214006C10344054401C60FFF733FF144B144A9DF871
S214006C202010B8F1000F14BF98469046012202FAD1
S214006C3007F7104A0433002908BF1346C8F8007047
S214006C401F6042F220430C4A9DF82410D7500B4B8D
S214006C5002F510522432002908BF13461F60BDE813
S214006C60F88300BF00C4034008C4034010D40340A8
S214006C7010E4034014E4034000C0034024D403405F
S214006C80F0B54AB1012530241D4E8D4004FB00644A
S214006C900BB341F21006A55130244443072904F1F2
S214006CA0804404F5703419D80F2765688E00B74005
S214006CB025EA070502FA06F63543656052B9012251
S214006CC002FA01F130220E4C02FB0040A3B141F261
S214006CD01003C150F0BD42F21006DCE70F2701F1A9
S214006CE08045083DE668AD00AF4026EA070602FA92
S214006CF005F53543E560E1E742F21003E9E700BF3A
S214006D0000C00340054B064A00290CBF1946114631
S214006D10012303FA00F00860704700BF40100440EB
S214006D204020044030B5047845788178C278012048
S214006D300F4B41EA0541240658609C609961FF218B
S214006D4099620021996319644FF000414FF0FF30BB
S214006D50596542F2500158504FF40010054913018E
S214006D60DBB2C1F8800181F81533086030BD00BF82
S214006D700000044000E100E02DE9F0410C46012649
S214006D804FF0300EC3B29E40204D23688F7A91F8A4
S214006D900B8094F80DC0097B45F82030A5F580459A
S214006DA00EFB00504FEA085343EA074343EA4153B9
S214006DB0C0F860C0C36542F2500322F003020267C7
S214006DC0EE50FFF760FE6B6D33436B65237A13B1AD
S214006DD02B6C33432B64637A13B1AB6B3343AB63D7
S214006DE042F218012379A27942EA0342084B5A502C
S214006DF06179E27942EA014241F218015A50054AA5
S214006E0016609E64BDE8F041FFF743BE00400440B4
S214006E10000004403420044010B50124C0B2844071
S214006E20FFF731FE044B5A6D22EA04025A659C6253
S214006E30BDE81040FFF72DBE00000440F8B5012560
S214006E40C3B29D400446FFF71EFE3022094B02FBEC
S214006E5004341E6D5F6B646EFFF71BFE3D4206D169
S214006E60C4F30A1008B9354200D10130F8BD00203D
S214006E70FCE700BF0000044041F67132034B0121DD
S214006E80DA6342F20C029950704700BF00000340DC
S214006E9041F67132044B0121DA6342F20C0299503A
S214006EA00022DA63704700BF000003404FF09043B3
S214006EB05A6812B19A6A002AFAD17047CB784A7893
S214006EC010B55B010C7843EA82030A79234343EA50
S214006ED002130C22424302F190421363012C02BFBC
S214006EE08A78024B43F8202010BD00BFD0800340B4
S214006EF008B54FF090435A6802B960B15B680BB1B1
S214006F00FFF7D4FF4FF0904130B10120074B1860D7
S214006F10FFF7CCFFC86008BDFFF7C8FF0223CB60B1
S214006F20FFF7C4FF0122024B1A60F4E70410004882
S214006F30042000484FF090435B6870B50BB1FFF734
S214006F40B5FF0121104B0679196083784578002B30
S214006F50C37814BF02240024002B14BF042200228E
S214006F604379DB0043EA06132B43234313434FF0D6
S214006F7090429360054B19600378002B14BF0B46B4
S214006F800223D36070BD00BF0420004804100048F0
S214006F90436813B9416070475B685A68012AFBD1A1
S214006FA059607047836813B9816070475B685A6898
S214006FB0012AFBD159607047C369032B9FBF00EBC2
S214006FC083020133D160C3617047C369042B15D8AF
S214006FD04FF09842116CC902FCD504339B00136530
S214006FE00168103B116041680C30116050F8041CB9
S214006FF0034411604FF09842984200D1704750F811
S214007000041B1160F8E70000054B5B69C3F38512AB
S214007010827003F03F021B0B42700370704700BF84
S21400702000C007404FF47A72054B5B689BB2B3FB17
S214007030F2F3022B9ABF034AD05C0020704700BFD1
S2140070400080E00F424703000D4B984208D1A3F59D
S2140070500033C3F88411C36D43F08003C3657047E3
S214007060084B984204D1A3F51033C3F89411F2E705
S214007070054B984204BFA3F52033C3F8A411EAE7F2
S2140070800080054000C005400000064070B505467B
S21400709016461C4619B90320FFF770F90146202C46
S2140070A008D001D8ECB170BD402C18D0602CFAD1B5
S2140070B0042200E0082206FB02F35A0802EB411203
S2140070C0B2FBF3F2084B203A03EAC202AB6823F0A5
S2140070D06003AB60AB681C43AC60EA61E3E7062282
S2140070E0E9E71022E7E700BFF8FF7F00F8B5154F85
S2140070F014460F401ABB202B07D0402B07D0002B7E
S2140071000CBF10254025012603E01D46FBE7802521
S2140071100326002307F580777E43194632462CF077
S214007120AFFE544300FB05F705FB0344A2FB050135
S2140071300023214432462CF0A3FE3844F8BD8025B7
S2140071400024E0E7F8FF7F0070B50446856803205A
S214007150FFF714F9A36805F00102E16903F0600384
S214007160BDE87040FFF7C2BF012241F20403C250DF
S214007170CB43934003F00A034361416111B942F2E5
S2140071800403C2507047000041F204030122C250BB
S21400719040F6AA6341F20502436100238360C3659B
S2140071A0C26042F2480210490361C361C364815061
S2140071B00E4A8365904206D00D49884203D001F5F9
S2140071C0804188420BD19042036506D0084B984216
S2140071D003D003F58043984201D10023436542F271
S2140071E004030122C2507047FFFF010000800540E3
S2140071F000C0054038B50D460446FFF7C5FF41F20E
S21400720004030122C250AB7C1BB1836843F0804369
S2140072108360EB7C1BB1297D2046FFF715FF2A8A89
S2140072206B7B20461343EA891343E360D5E90112DA
S2140072302B7BFFF72BFF6B7D1BB1A36843F48033DA
S214007240A360AB7DEA7D1B07120502F4E00203F0A3
S214007250E043297E1343A3658B1E012B1E4A1F4B5A
S21400726021D894421BD002F58042944219D002F5F0
S214007270804294420CBF02224FF0FF3203EB4213CF
S214007280022041F2AC52032998500CBF41F25C0335
S21400729042F25C030422E2502B78636138BD002280
S2140072A0ECE70122EAE7944211D00D4A944210D04E
S2140072B002F5804294420CBF02224FF0FF3203EBED
S2140072C04213022042F2AC5201299850DDE7002218
S2140072D0F5E70122F3E700BF0080054000C0034049
S2140072E000C0054083695B06FCD5C163704700009B
S2140072F038B50446054D26F080FA0FCC0FC594E845
S2140073000F0085E80F00002038BD00BF781C002065
S21400731047F6FF739A42F0B55ED003295ED8304B2D
S214007320CE0013F8311098190129857819460DD129
S214007330C3785B1B23B1416831F91310914202DC1C
S214007340E818C0B2F0BD013B1BB2F3E74068002866
S214007350F8D0B0F90030934204DBB0F90230934223
S214007360B8BF13468288FF2A19BFC8242827B0F959
S2140073700640B0F90870A4EB03040CBF01220022FB
S21400738094FBF7F414448A19567824B2721EA2426B
S214007390A8BF22464FF47A7700EBC201CC888968F2
S2140073A0013213FB041112B221EAE17101F5FA7100
S2140073B0B242B1FBF7F104DA00EBC204A4888C42B7
S2140073C0EAD200EBC20232F8040C884228BF084614
S2140073D0A84238BF2846B4E7FF20B3E70020B1E74D
S2140073E0781C00200329F0B54DD8294800EBC105CC
S2140073F010F831106B6801290FD1A878E97891420E
S21400740094BFC0EB0102C0EB0202091AD2B28A4254
S214007410C8BF002233F91200F0BDA3B3B3F90200CF
S2140074208242F9DDE978B3F9004091422DD96978B6
S2140074309D8897B2FF2D4FF0000514BF01F1FF3174
S2140074400239C9B20433EEB2B1424FEAC50606D9D4
S21400745003EB060CBCF808C00135BC45F3D24FF46C
S2140074607A714A433344B3F902505B68D21A022356
S21400747095FBF3F31A4492FBF5F2944205DB904237
S214007480CADC10B2C8E70348C6E72046C4E700BF18
S214007490781C00200080FFFF08B50448FFF728FF8F
S2140074A0BDE80840012026F0AAB900BF48470300FF
S2140074B07FB51422002101A82CF0EFFE02230B4A10
S2140074C08DF80430029204228DF80D308DF81330BA
S2140074D005230DEB02014FF0FF308DF80E208DF8DE
S2140074E0143026F0F1F907B05DF804FB006A1800C6
S2140074F0002307B5CDE90033012369464FF0FF307E
S2140075008DF8023026F018F903B05DF804FB4FF052
S214007510402213B50024536F684643F001035367B7
S21400752000948DF80440FFF747FB204602B010BDDC
S21400753008B50248FFF77CF9002008BD00B4C40473
S21400754070B586B001AA1546114B03F11006144615
S21400755018685968083303C4B3422246F7D14FF679
S214007560FF7219889B782180A3700A4B0A481B88F3
S214007570934208BF8123DBB28DF80D308DF80E30B4
S214007580FDF72AFC2846FFF7A3F9002006B070BDD9
S214007590344803000001E00F00F049021FB50B4A13
S2140075A001AB1068516803C31189927A19809A70EA
S2140075B0252301A88DF80530FFF720FA6420FFF791
S2140075C055FA002005B05DF804FB00BF47480300ED
S2140075D06FF00402502110B50A480B4C12F0800FD1
S2140075E0D3B21BBF03F00F03043BA3181B1802F112
S2140075F001020CBF83F8001319763D2AEED1002055
S21400760010BD00BF00ED00E000E100E000F07AB839
S21400761038B500F06DFE0446D8B900F089FF4FF487
S214007620167358430C4B00F5742000F23F20B0FB55
S214007630F3F02246094B0A4D18600A4B196845F8C4
S214007640220001320A2AFAD100EBC0020844104494
S2140076501860204638BD00BF40420F00D41C0020F2
S214007660A41C0020A01C002070470000012208B5C2
S214007670034B1A7000F050FF024B186008BD00BFA5
S2140076809C1C0020D01C0020F8B5144C23781BB39B
S21400769000F042FF124B134D1B68134EC01A08BF72
S2140076A00120124B124F18602B7856F8232046F80C
S2140076B02300111A3A680F48521A0A213A60093212
S2140076C0B2FBF1F20133DBB20260B3FBF1F201FB75
S2140076D012332B7000232370F8BD00BF9C1C0020C3
S2140076E0D01C0020CC1C0020A41C0020981C0020CD
S2140076F0A01C0020D41C0020014B1868704700BF57
S214007700D41C0020202342F274000949094A81F85B
S2140077102D33094B1A5042F270001A504FF40050A5
S214007720C1F88401486041F274015A50704700BFA6
S21400773000E100E0010000A000C00040054B064A42
S2140077401B78916DC90700D513B10028F9D1704791
S21400775001207047EC1C002000C000402DE9F843D3
S214007760914B1E6F9D6A9C6AF10705F0020504F0B6
S214007770010452D542F2700201279F508B4ADFF86F
S214007780488292F80090B9F1000F00F0F9800021CD
S214007790117098F80020BA4200F2ED8042F22802FA
S2140077A002219F5041F2280299509A6DD203FCD4D0
S2140077B07F495A6B096822F470620A435A637D480F
S2140077C07D4A99690068126821F47F01024321F41A
S2140077D07F410A439A617948794A196912680068B4
S2140077E021F47F6121F00F0102430A431A617549B3
S2140077F09A69096822F0FF020A439A610222002D64
S21400780040F0B38042F228015A50674B0122002C08
S21400781000F0AE8041F228015A5016F000517CD09C
S21400782042F270024FF0010C5F4B624F995066496E
S2140078305E4ADFF890E182F800C00A7862440A7077
S2140078405A6B5B4902F47060086098695A4900F404
S2140078507F400860996901F47F0139609F69FFB233
S214007860CEF800701F69DFF858E107F47C67CEF8A1
S21400787000701F69DFF844E107F03F07CEF800709C
S21400788042F2280743F807C041F228074FF0020CDF
S21400789043F807C04FF0004C43F807C09F6DFF0346
S2140078A0FCD442F228074FF0004C22F4706242F4F7
S2140078B00072B0F5C84F43F807C05A6302D8B1F556
S2140078C0C80F0CD9384A41499369096823F47F03E5
S2140078D023F47F4343EA012343EA01439361324B97
S2140078E03B491A69096822F47F62880822F00F0271
S2140078F0024342EA80121A619A6922F0FF020A43A2
S2140079009A610222002D42D142F228015A500122E9
S214007910002C3FD041F228015A50002E23DA42F2C2
S21400792070024FF00041204B99502A4A1278D2B18B
S21400793042F228020121995041F228020221995070
S2140079409A6DD203FCD441F218024FF000419950D0
S214007950022215BB42F228015A50134B0122FCB1F9
S21400796041F228015A50BDE8F88341F228014BE75E
S21400797042F2280150E7FFF777FE164B1F704CE7E0
S214007980FFF782FE00F0B4FA88F8009045E741F26F
S2140079902801BBE742F22801BEE741F22801DBE7F7
S2140079A042F22801DEE700BF00C00040EC1C0020C9
S2140079B0F01C0020E81C0020E41C0020E01C002036
S2140079C0DC1C0020D81C0020ED1C0020380C0020F9
S2140079D0340C0020EE1C0020FFF7C0BEBFF34F8F14
S2140079E0BFF36F8F054A536A23F480335362D2F88D
S2140079F0943023F00103C2F89430704700ED00E0A5
S214007A0070B5FFF7EBFF1E4C1E481F4B844208BFA5
S214007A104FF08042196B1CBF20F01F02203A21F065
S214007A20FF0141F0A001B2F1005F196309D3174DC1
S214007A30174E296842F0010299600131DE601A6132
S214007A40296084420CD01148124A016822F01F02B5
S214007A5042F003029960DA600F4A01311A61016050
S214007A60BFF34F8FBFF36F8F05225A600B4A536ADE
S214007A7043F480335362BFF34F8FBFF36F8F70BDF5
S214007A80A00F0020040E002090ED00E0F41C002063
S214007A9003000020BF0F0020E1FFFF3F00ED00E0E5
S214007AA010B51446FFF79AFF1F2C194B1ED91A6BF8
S214007AB0C40622F47F4242F4807218BF20F01F00F2
S214007AC0144C1A6318BF2030CA0618BF21F01F01D5
S214007AD0226820F01F0021F01F019A6040F003008A
S214007AE041F003010132D86019612260BFF34F8F65
S214007AF0BFF36F8F05225A60074A536A43F48033F8
S214007B005362BFF34F8FBFF36F8F002010BD00BFCF
S214007B1090ED00E0F41C002000ED00E0BFF34F8F76
S214007B200549064BCA6802F4E0621343CB60BFF314
S214007B304F8F00BFFDE700BF00ED00E00400FA0530
S214007B4008B5FFF7EBFF08BD034B1B78002B14BFEF
S214007B5001200220704700BF201D00200329F8B531
S214007B6098BF124B06460F4694BF5C5C0024032861
S214007B7005D8DFE800F002080B0E44F002040C4BB8
S214007B801D684DB9F8BD44F00804F8E744F0200439
S214007B90F5E744F08004F2E76B681A68144203D0F5
S214007BA05B683946304698472D68EAE75248030036
S214007BB01C1D0020F8B5FEF75FFF144C074623781F
S214007BC0134D83B1134E33781BB100F055FA0023E2
S214007BD03370002000F06EFA18B10023237000F016
S214007BE073FA23786BB901212878FFF7B7FF0123D2
S214007BF02B702A78084B38461A70BDE8F840FEF716
S214007C003FBF0122054B1A70F3E700BF1A1D002084
S214007C10101D0020181D0020111D00201B1D002017
S214007C2070B5FEF729FF114D06462A788AB900F08E
S214007C305FFB044620B13046FEF722FF204670BDAB
S214007C4000F076FC0A4B18600A48FDF741F90A4B2B
S214007C501C6000F06BF900F06BFA084B002418600B
S214007C60012330462B70FEF70BFFE7E7191D0020B7
S214007C70241D00201C1D0020281D0020141D00208F
S214007C80F8B50E460446FEF7F7FE002E14BF012197
S214007C90FF21164A0546601E135C154C0B44135410
S214007CA02278012A1CD9FFF74FFF8242074617D9D0
S214007CB0104E33781BB100F0DFF9002333700E4A04
S214007CC0137843B1002313700C4A0120137000F0A0
S214007CD0F1F900F0F9F939462078FFF73FFF2770F1
S214007CE02846BDE8F840FEF7CBBE00BF201D0020AA
S214007CF0101D0020181D00201A1D00201B1D00202E
S214007D0038B541600446FEF7B7FE054621460448EE
S214007D10FDF7E1F82846BDE83840FEF7B1BE00BFE3
S214007D201C1D0020054B1B685843054B00F57420AE
S214007D3000F23F20B0FBF3F0704700BF241D002088
S214007D4040420F002DE9F04F85B0FEF795FE044641
S214007D50FCF74CFB002800F09080DFF88881DFF805
S214007D608891454698F8003033B1554A1378013B60
S214007D701370002388F80030FFF7E6FEA0B1012755
S214007D800238B84217D803A9002000F091FB8246BB
S214007D9088B94C4B039A1B689A4274D8484A2F708D
S214007DA013780133137006E02B7823B1444A287009
S214007DB01378013B1370FFF7C7FE0128074604D966
S214007DC0414B1B780BB900F019F9404EDFF81CA1A7
S214007DD03078B346B84206D09AF8003013B9394620
S214007DE0FFF7BCFE3770012F0CD9374F3B784BB9E5
S214007DF0374B1B7823B900F039F90122354B1A703E
S214007E0001233B70307800F07DF99AF8003013B10A
S214007E10314B1B78337000E000BF2046FEF730FE83
S214007E20FEF72AFE0446484600F09CFAFCF7F3FAF2
S214007E300646002896D1244B1A7872B1254F187042
S214007E403B788AF8000013B100F016F93E70002067
S214007E5000F030F948B300F037F92B782BB1184A08
S214007E601378013B137000232B7000219BF8000051
S214007E70FFF774FE00238BF800302046FEF700FE66
S214007E8005B0BDE8F08F154B1E6800F055F9039954
S214007E903044884282D20223091ACDE900A3104A50
S214007EA05346484600F086FA85E7012000F02AF996
S214007EB02046FEF7E5FDFEF7DFFD0446C7E700BFF8
S214007EC0201D0020141D00201A1D0020101D00205B
S214007ED0221D0020181D0020111D0020281D002036
S214007EE0B57B0000231D0020F81C00201B1D002071
S214007EF038B50A4D2B787BB1094C237863B100F076
S214007F00E3F8084B01211878FFF728FE01232B70B1
S214007F100023054A2370137038BD00BF101D0020D3
S214007F201A1D0020111D00201B1D00202D4A2E4B5F
S214007F30116F2E4801F00701D0B51960D2F8203134
S214007F408069032900F0020041D003F00703991E60
S214007F504B424B41D2F88012254C01F001010B43F5
S214007F6024490B7060B33BB9D2F8003103F0030329
S214007F705A1E534253410B701A4BD3F8003103F08C
S214007F800303022B25D0032B26D0012B27D1FCF789
S214007F901DFF0027154B0246DB68461EC3F30B0386
S214007FA00133154803EB8301E0FB016700233046ED
S214007FB039462BF065FFFFF7B5FE236818442060AE
S214007FC06420FFF7AFFE236818442060D0BD01236D
S214007FD0C0E7FCF761FFDCE7FCF70EFFD9E70020FF
S214007FE0D7E700BF00800040FC2D002000C0014005
S214007FF0301D00202E1D002040420F00FEF7DABD87
S214008000074B1A7852B100221A70064A136F23F0F3
S214008010070343F001031367FCF7C2BE704700BFB7
S2140080202C1D0020008000400D4B10B51B78B3B10E
S214008030022000F0EBFB90B100F068FA78B1094B33
S2140080409A6DD20302D5DB6D9B0708D40124064B3C
S2140080501C70FFF70BFB41F22803024AD45010BDF8
S2140080602E1D002000C000402D1D00200122014BC7
S2140080701A7070472C1D002038B50B4B1B788BB13F
S2140080800A4D2A7862B90A4CA36DDA0302D5E36D6D
S2140080909B0707D4FFF7EAFA41F228030122E250D1
S2140080A000232B7038BD00BF2E1D00202D1D002084
S2140080B000C00040034B1B780BB1FFF73FBB01200D
S2140080C0704700BF2E1D002008B5FEF774FD0A4A53
S2140080D00A49136F096823F007030B431367084B1D
S2140080E01B782BB142F22803012102F58042D150C1
S2140080F0BDE80840FCF754BE00800040FC2D002080
S2140081002E1D002002280AD003280BD001280CD1EF
S214008110064A136923F00403136130BF704700203A
S214008120FEF732BD0020FEF743BD704700ED00E0CD
S2140081304FF4C870FFF7F6BD08B5054B187818B1B0
S214008140FFF7DAFA00EBD000024B1B68184408BDB4
S2140081502E1D0020301D00200122014B1A70704792
S2140081602E1D0020094B07B5986800F16043B3F553
S214008170C03F07D30023CDE900334D23044A1946F8
S214008180FEF7E0FC03B05DF804FB00BF00ED00E086
S214008190001E0020104A30B5136841611546ABB981
S2140081A01060836011E0091B9C6841611A467CB12F
S2140081B023465C698C42F6D9002CF4D052B190600C
S2140081C0836013B15A69511A596130BD0022F0E735
S2140081D02346F4E72860F3E74C1F002010B500F0B4
S2140081E0BDFA094B094A196831B11368C41A4B69BC
S2140081F0A34203D31B1B4B61106003E0C01A00238D
S21400820010604B6110BD00BF4C1F0020381F0020BF
S21400821038B50F4D02202B685C690E4B1B681C445A
S21400822000F0D0FA204600F0A1FA00230A492A6896
S2140082300B70D088800702D501230B7038BD92687A
S214008240002AFBD050690344012BF2D9F6E700BFA1
S2140082504C1F0020381F0020401F002070B59DF8DE
S2140082601450164605710025049A8560BDF818500E
S2140082700446C5800260C0E903360D4629B961612F
S2140082800BB11146984796B13546FEF7FCFB0646FD
S214008290FFF7A4FF29462046FFF77CFF054B1B6827
S2140082A0A34201D1FFF7B4FF3046FEF7F2FB0020F1
S2140082B070BD00BF4C1F002000210C4A13687BB124
S2140082C083420AD1836879B18B6083681BB15A698F
S2140082D041690A445A610020704719469B68EEE7D8
S2140082E00028EFD0022070471360EEE74C1F0020F6
S2140082F070B5FEF7C8FB144E05463478FCB9134B30
S2140083001C60134B1C60134B1C8000F0EDF9012021
S21400831000F058FA00F0A4FA0F4B0246186020B995
S2140083202846FEF7B6FB232070BD23460B4840F2D6
S214008330E7312BF0A5FD0A4B186001233370284661
S214008340FEF7A7FB0020EFE7341F00204C1F00209D
S214008350381F0020421F0020481F002018FCFFFF87
S2140083603C1F00202DE9F0410546F8B1FEF78BFBD7
S2140083700F4F0646FFF732FF2846D7F80080FFF774
S2140083809BFF044628B13046FEF783FB2046BDE837
S214008390F081A8453B6803D123B1FFF739FFF2E728
S2140083A0002BF0D1022000F019FAECE72224EDE7CA
S2140083B04C1F0020F0B50D4685B016461F460446F5
S2140083C080B1FFF7CFFFBDF82C30002202939DF856
S2140083D028302946CDE9007320463346FFF73EFF96
S2140083E005B0F0BD2220FBE738B50C46054698B12F
S2140083F091B100230B70FEF746FB0121074B1B686B
S2140084000BB122781AB1FEF744FB002038BD9D421E
S2140084100CBF21709B68F3E72220F7E74C1F002073
S214008420F0B51F46002387B00D4616468DF8173068
S2140084300446A0B10DF11701FFF7D6FF9DF81720EF
S2140084407AB9BDF83430294602939DF8303020467C
S214008450CDE900733346FFF701FF07B0F0BD2220D9
S214008460FBE70320F9E7F0B51F46002387B00D466B
S21400847016468DF817300446A8B10DF11701FFF720
S214008480B3FF9DF8173083B9BDF834302A460293FF
S2140084909DF830302946CDE9007320463346FFF775
S2140084A0DDFE07B0F0BD2220FBE70220F9E7000062
S2140084B0F8B507460E46FEF7E6FA00240546114BC9
S2140084C01B6823B92846FEF7E4FA1B2015E05A6914
S2140084D01444DA88BA4213D100F040F90A4F3B68D8
S2140084E0C01AA0420AD200F039F93B68C01A201A16
S2140084F030602846FEF7CDFA0020F8BD0020F7E7EA
S2140085009B68DEE74C1F0020381F0020014B1878C0
S214008510704700BF401F002038B5FEF7B4FA054686
S21400852000F01CF904462846FEF7B3FA204638BD8C
S214008530014B1868704700BF481F00200A4B10B553
S2140085401B680C4683420CD3084B4FF47A721968AA
S2140085500023A0FB01012BF093FC013020600020DB
S21400856010BD2120FCE700BF3C1F0020481F002054
S214008570104B10B51A684FF47A73A0FB0301A2B132
S214008580531E134211D1B2FA82F2C2F11F02C2F197
S2140085902004A2F1200301FA04F420FA02F2224396
S2140085A021FA03F342EA030010BD00232BF068FC17
S2140085B0FAE700BF481F0020C2072DE9F84F04461F
S2140085C00BD53F4A138801339BB21380FFF706FE94
S2140085D03C4B1B680BB1FFF71BFEA3076DD500F0E5
S2140085E0BDF8394F00263D688046451BFEF74BFA1E
S2140085F0B24683463246334B1C6814B16369AB42BD
S21400860014D9012E314B51D1D288022A4ED11E7078
S214008610002C4ED06369C7F800805D1B6561FFF7CC
S214008620F7FD5846BDE8F84FFEF733BA23462A460C
S214008630C7F800805969914209D8187994F804C09F
S214008640521A844588BF1C469B68002BF2D15846B8
S214008650FEF71FFAD4F814B0C4F814A0FEF713FA05
S21400866081462046FFF728FE4846FEF712FA2369A1
S2140086704BB1FEF708FA814621692046FFF78AFDCE
S2140086804846FEF706FAE36813B121682046984785
S21400869000F064F8D844A5EB080581460544FEF7CB
S2140086A0F2F9013683462246C846A4E700221A702D
S2140086B0AEE7022000F092F8B3E7BDE8F88F00BFFF
S2140086C0421F00204C1F0020381F0020441F00209F
S2140086D010B5FEF7D8F9034B1C78FEF7DAF92046FA
S2140086E010BD00BF441F00201FB50024184B18689B
S2140086F09A88029053F8060FADF80C201B7900906C
S21400870002A88DF804308DF808408DF80C40FEF76E
S21400871011FC694601208DF80040FEF7CFFB4FF0B4
S21400872090431F219A6922F01F029A61094A11603C
S2140087309A6A12F00802FBD11A620120FEF7D8FBF3
S2140087404FF48062044BC3F880211A6004B010BD59
S214008750564803001420004800E100E04FF0904324
S2140087609A6A1207FCD4186A704700004FF09042CD
S214008770936A1907FCD4136A116C5269120704D461
S214008780CA1A022A01D899420ED1C21A012A98BFE3
S214008790981CB0F1FF3F28BF01304FF0904318649B
S2140087A09A6942F008029A61054A13783BB14FF085
S2140087B09041CB6B43F00203CB63002313707047EA
S2140087C03C0C002082074FF0904200F001039169B4
S2140087D048BF43F008030B4393617047830700F0DC
S2140087E001020AD50121084B42F0080219704FF029
S2140087F09041CB6B23F00303CB634FF090418B6922
S21400880023EA02038B6170473C0C00204FF0904334
S21400881001285B6904D0022805D1C3F3C000704765
S21400882003F00100704700207047000010B5FEF707
S2140088302AF94FF0904304465B691A07074A03F08B
S214008840010003F00D0348BF40F002001360FFF77D
S214008850B3FE2046BDE81040FEF71BB914200048C2
S2140088601C20FDF78BBD08B5FBF72EFDFBF794FD2E
S214008870FBF794FDFBF79DFDBDE80840FBF7A4BDA4
S21400888008B5FBF7A8FDFBF7A7FDFBF7A7FDBDE8BE
S2140088900840FBF7A5BD38B50446FEF7EDF80546DB
S2140088A020462BF0B7FC04462846FEF7E9F820469B
S2140088B038BD70B504460E46FEF7DEF8314605466E
S2140088C020462BF067FC04462846FEF7D9F82046DB
S2140088D070BD38B50546FEF7CFF8044628462BF09F
S2140088E0A1FC2046BDE83840FEF7CAB830B5084CB3
S2140088F063680BB9184630BD9D692D78854205D151
S2140089005D688D4202D15D789542F3D00834EFE77A
S214008910D0480300382200212BF0BFBC10B5044617
S21400892058B1406B18B123689B695B69984720462D
S214008930BDE81040382100F0CBBB10BD38B5054669
S2140089400C4659B1382200212BF0A7FCA3691B69FD
S2140089509847686320B100202C6038BD0148FCE7CA
S2140089600148FAE7009FFFFF809EFFFF30B40468CF
S214008970B4B12569AD0702D46568954210D1012BC4
S2140089804260037203D06578033D022D04D8A369C4
S2140089909B68406B30BC184713B9A369DB68F8E7DF
S2140089A0014830BC704700BF009FFFFFF0B4056869
S2140089B0049E15B91448F0BC7047002434606C69F6
S2140089C0ECB195F801C0BCF1010F0BD1A24218D151
S2140089D03260AA6954680A46A446F0BC90F90810AA
S2140089E0406B6047994208D1C369002BE2D1B2FBC5
S2140089F0F4F304FB1322002ADCD10448DBE7044826
S214008A00D9E70448D7E700BF009FFFFF809FFFFF1E
S214008A10809CFFFF809DFFFF016810B50446A1B152
S214008A2000204B781060DA1E042A0DD9092B0BD0D3
S214008A300A78483A012A07D9012B08D1E36983420C
S214008A40A0F5C54008BF002010BD0248FCE702485C
S214008A50FAE700BF009FFFFF809FFFFF10B50446A8
S214008A6003F012FC2046BDE81040FFF732BF10B5F9
S214008A7024210120FFF71DFF044608B103F000FC87
S214008A80204610BD03F021BC03F004BC03F020BC5C
S214008A902DE9F047B2F5C07FADF50A7D074688465A
S214008AA0154600F29D804FF4D072002122A82BF0CC
S214008AB0F4FB0DA803F0E4FB2B0A00248DF89A3093
S214008AC0302328AE41462A4630468DF89F30ADF812
S214008AD098408DF89B502BF0BCFB802373552346A3
S214008AE00DF1140803F808300133202BFAD14FF4A7
S214008AF0807241460DA803F0CDFB0446002851D1F4
S214008B00064619351022002101A82BF0C6FBAA46FE
S214008B100DF187090DF1030309F1100113F8012F78
S214008B2019F8010F424049451A70F7D101ABBAF166
S214008B30100F1A464FF001010DA894BFAAEB0A0ABF
S214008B40AAF1100A03F0C4FB044658BBBAF1000FA2
S214008B50E0D116AB9819102201A92BF07AFB9DF8EC
S214008B608B3010360133302E8DF88B30CAD14FF44F
S214008B70807216A90DA803F08DFB044690B93D46F9
S214008B8007F130061EAB1A4601210DA803F0A0FB24
S214008B90044638B9284610221EA910352BF059FB7A
S214008BA0AE42EFD10DA803F06FFB4FF4D07122A8B0
S214008BB000F08EFA302116A800F08AFA20214046EE
S214008BC000F086FA102101A800F082FA1CB13021CC
S214008BD0384600F07DFA20460DF50A7DBDE8F087A0
S214008BE06FF03704F7E72DE9F0418CB004460E46E7
S214008BF03022002168462BF050FB4FF0000804F1AD
S214008C0020070DEB080304F1100111F8012D0132C5
S214008C10D2B20A700AB9A142F7D1224601213846DB
S214008C2003F056FB0546E8B908F11008B8F1300F16
S214008C30E7D1731E0DF1FF322F3612F8011F13F81D
S214008C40010F4140B3421170F7D14FF4807269466C
S214008C50384603F01FFB054620B9102208A9204617
S214008C602BF0F7FA6846302100F032FA28460CB0AE
S214008C70BDE8F0812DE9F04117468269E0B0B2F513
S214008C80C07F044688461E4644D8C2F5C073B34229
S214008C9040D3C6F5C0739B1ABB423BD34FF4C07299
S214008CA0002168462BF0F9FA636CA2696946A06C4D
S214008CB0984728B16FF03305284660B0BDE8F081CC
S214008CC0A5693EB1636C32466946A06C9847002899
S214008CD0F0D13544B8F1000F07D037B10DEB0500E1
S214008CE03A4641462BF0B5FA3D442A466946684660
S214008CF0FFF7CEFE054638B969462046FFF773FFF4
S214008D00054608B9012323614FF4C071684600F098
S214008D10DFF9D1E76FF03705CEE710B54C2200211A
S214008D2004462BF0BAFA4FF0FF33236110BD10B59E
S214008D30044640B1203003F0A7FA2046BDE81040B4
S214008D404C2100F0C5B910BD0023FFF793BF2DE9F5
S214008D50F04105468846144688B020220021684621
S214008D6005F120061F462BF098FA304603F088FAE5
S214008D70AB69C5E911840BB92023AB612C69002CC3
S214008D8005DAAC692F2C8EBF00240134640842F249
S214008D9010734FF48072EB616946304603F07AFA3E
S214008DA028B923460E9A39462846FFF763FF08B0CF
S214008DB0BDE8F0812DE9F041B2F5806F90B0054630
S214008DC00F4616469846169C5CD8B4F5807F5CD84D
S214008DD03022002104A82BF060FA2A69EB699A4237
S214008DE001DC6B699BB1224641462846FFF7ACFF83
S214008DF0044620BB05F120082EBB04A92846FFF731
S214008E00F2FE044698B92B6901332B610FE0002C63
S214008E10F0D02246414604A8FFF73AFE044630B991
S214008E2004A92846FFF7DFFE04460028E2D03021DA
S214008E3004A800F04DF91021684600F049F92046D4
S214008E4010B0BDE8F08105F1100212F8013D0133C3
S214008E50DBB213700BB9AA42F7D16B462A46012142
S214008E60404603F035FA04460028E0D1102E34467A
S214008E7028BF10243846224669462BF0EAF92744D4
S214008E80361BB9E76FF03504D9E76FF03704D6E73D
S214008E90002307B50093FFF78DFF03B05DF804FBD2
S214008EA02DE9F041202B8AB080460E4617461D4617
S214008EB009D9002302AA2946384601F0C9FE04460D
S214008EC008BB202502AFD8F800108DF804608DF896
S214008ED0055008F1040681B101230222C8F80030CB
S214008EE001A9304603F0B8F9044660B92A46394667
S214008EF0304603F0B1F9044605E0304603F09AF92F
S214008F0004460028E8D002A8202100F0E1F8204618
S214008F100AB0BDE8F0812DE9F043002680460446FD
S214008F2037466FF03B05B146A3B0D8F870309F4285
S214008F300BDB002E08BF6FF03C0502A8802100F076
S214008F40C7F8284623B0BDE8F083D4F88430656FB0
S214008F50012BCDF8049001AB4FF0800202A9A06F60
S214008F6008BF0126A84705460028E6D1019B53B155
S214008F7002AAF9B24046FFF793FF0028E2D1E36F5A
S214008F80019A1344E36701371434CEE738B5002559
S214008F90044628220567294674302BF07EF92046C1
S214008FA040F8045B03F042F9226F012A0BDC14231D
S214008FB003FB024304492020C3E91D1501210A448E
S214008FC0C3E92001226738BD7DBD000038B50446E0
S214008FD00025043003F02CF92567282104F17400DD
S214008FE000F076F8256038BD2DE9F041202A88B0DB
S214008FF006468846174667D84FF48175013D5DD012
S214009000336F002B5DD03046FFF785FF0446D8BB94
S214009010034632460120D6F870E0A6453CDC002820
S214009020ECD01F2BEAD9202200216846351D2BF0F4
S21400903034F96946284603F016F9044620BB28464C
S21400904003F0F6F8284603F0F1F82146284603F028
S214009050F1F80446C0B920226946284603F0FCF819
S214009060044688B903466A462021684601F0F0FDAA
S214009070044648B903461421326F9A4219DC3A4630
S214009080694640462BF0E5F82021684600F020F8B7
S214009090204608B0BDE8F081D2E91FC18C4538BF34
S2140090A00020D2F884100134012908BF634414322A
S2140090B0B3E701FB03650133E867DEE76FF03B04C7
S2140090C0E2E76FF03F04DFE76FF03B04E0E7000005
S2140090D00A4619B1024B00211B681847704700BFAB
S2140090E0400C0020B0F5885F04D00AD841F2010396
S2140090F0984216D111F0070F14BF6FF086000020BB
S2140091007047B0F5905FF5D0B0F5105F09D121F04B
S2140091104003802BEED0B1F5807FEBD06FF0860059
S21400912070476FF0850070470B8813B102889A422B
S2140091300AD10B6A43B94B884BB142889A420CBF9E
S21400914000206FF0860070476FF086007047184664
S2140091507047F8B51646026A0446B2420D461F46E8
S2140091600DD8C16928462BF074F8206A0021321AFF
S21400917028442BF092F80020236A3B60F8BD6FF07D
S2140091808900FBE737B504462379DD0715D503F0DC
S2140091900605022D11D0657995420BD89B060CD496
S2140091A001AB04F1080001F005FA08B9019B6371F0
S2140091B003B030BD6FF08900FAE76FF08800F7E77C
S2140091C010B4144600F0FE42B2F1C06F08BF20F49F
S2140091D07C5000F0FA42B2F1806F44D1324A90429D
S2140091E029D014D8314A904207D8013A904234D256
S2140091F02F4A904207D101221EE02E4A904234D0D8
S2140092000432904231D000205DF8044B70472A4A61
S214009210904226D007D8294A90421CD0013290426C
S214009220F1D1042208E0264A904218D0013290423A
S214009230E9D1062200E0052242F20130814225D023
S21400924015D842F20200814228D042F20400814240
S214009250D9D1092013E00322EEE70222ECE7082228
S214009260EAE70A22E8E7174AC3E70722E4E7B1F588
S214009270105F15D042F203408142C4D1052003B1ED
S214009280187021465DF8044BFFF730BB402C09D020
S214009290802C4FF00400F2D1C024F0E70720EEE760
S2140092A00220ECE70320EAE70100C00401016004A5
S2140092B00044400401008004050000060200C004CB
S2140092C0010040060200C00230B400F0FE45B5F1D1
S2140092D0405F0BD120F0774424F47C0444F0005423
S2140092E0B4F1005F02D130BC01F051B86FF08500D8
S2140092F030BC7047814230B540D0224B224A01EA4A
S2140093000304944206D021F44034204D24F0FF0498
S214009310AC4218D10340934206D020F440331B4A97
S21400932023F0FF0393420ED110F0FF030BD0184A30
S21400933043F08073934206D1484030F0FF030CBFE1
S2140093400120002030BD00F0FE43B3F1405F17D18E
S21400935020F0774323F47C0343F00053B3F1005F1F
S2140093600ED101F0FE43B3F1405F09D101F47C0158
S21400937041F040510B1A58425841E3E70120E1E71B
S2140093800020DFE700FFFEFF0000021000000410D0
S214009390FF0000012DE9F34188461E46002302A97E
S2140093A041F8043DC8F80030174601F023FA054698
S2140093B0C8B9019C238803F4E043B3F5804FE36803
S2140093C008BF27F0010737EA030310D14EB1314634
S2140093D02069FFF78FFF20B931466069FFF78AFFE3
S2140093E028B1C8F80040284602B0BDE8F0816FF00A
S2140093F08405F8E7F8B51646002204460F461A60BC
S2140094001946406801F04EFA054630BBD4E9010122
S21400941001F04AFA054600BBE36823F4F85323F04C
S2140094200303FBB94FF6F87362889A4217D8238B6A
S21400943023F00103B3B93146384601F013FA054666
S21400944058B90FCC37683E460FC694E8070086E842
S21400945007003B8B23F001033B832846F8BD6FF0E3
S2140094608505FAE76FF08605F7E702791AB1D0E9C5
S214009470071201F059BB10467047F0B40488049EEA
S21400948004F4E045B5F5805F0CD0B5F5005F09D073
S21400949044F2010724F4405CBC4506D1B5F5804F84
S2140094A000D03EB9F0BCFFF754BE04F44F44B4F508
S2140094B0824FF3D06FF08500F0BC704710F17F0F3D
S2140094C0BEBF404200F4FF40404210F16C0F4ED049
S2140094D000F3CE8010F5874F00F066816DDC10F546
S2140094E0A14F26D035DC10F5C34F00F0728116DC94
S2140094F010F5C64F00F0588108DC10F5C84F4FD065
S21400950010F5C74F3ED16FF09600704710F5C54F67
S21400951076D010F5C44F35D16FF09500704710F532
S214009520A54F3DD008DC10F5C24F69D010F5C14FED
S21400953028D16FF08500704710F5A34F00F04981E1
S21400954010F5A24F5CD010F5A44F1BD16FF0910020
S214009550704710F5994F53D017DC10F59D4FE8D0A3
S21400956008DC10F59F4F4BD010F59E4F0AD16FF0D8
S2140095708900704710F59C4F00F0168110F59B4F40
S21400958000F027816FF08300704710F58B4F07D0EF
S21400959009DC10F5984F00F0078110F5974FF1D1D0
S2140095A06FF09200704710F5894F00F0128110F5A9
S2140095B0884FDCD010F58A4FBAE710F5725FB8D046
S2140095C02ADC10F5814F1BD00FDC10F5844F17D026
S2140095D005DC10F5864F96D010F5854F92E710F50E
S2140095E0834FDDD010F5824F95E710F57A5F07D0F0
S2140095F009DC10F57E5F00F0EC8010F57C5FC1D1D1
S2140096006FF08600704710F5765FF9D010F5745F3E
S214009610F6D010F5785F98E710F5665F89D013DC12
S21400962010F56C5FECD008DC10F5705F02D010F51A
S2140096306E5FA7D16FF08400704710F56A5F3FF445
S21400964078AF10F5685F73E710F17A0FA8D006DCE4
S21400965010F5645F00F0A88010F5625F9FE710F1D8
S214009660700F9DD010F16E0F3FF44DAF72305FE774
S21400967010F1290F94D059DC10F13A0F29D02BDCC9
S21400968010F1600FBCD00EDC10F1660FB8D005DC10
S21400969010F16A0F00F09D806830B0E710F1640F9B
S2140096A0AED06230ABE710F1510FA9D008DC10F154
S2140096B0560F79D054307FF465AF6FF0880070474E
S2140096C010F1400F05D0FFF65DAF3D3001283FF6A4
S2140096D059AF6FF09300704710F1340FF9D010DCDB
S2140096E010F1370F3FF45CAF05DC10F1390F3FF493
S2140096F057AF38301CE710F1360F3FF41AAF35304D
S2140097004DE710F1310F3FF44BAF05DC10F1330F8E
S2140097103FF446AF32300BE710F12D0F3FF440AF69
S21400972010F12B0F3FF43CAF2F3038E710F1130F3A
S2140097303FF436AF25DC10F1220F0FDC10F1240FBA
S214009740BFF6F7AE10F1270F3FF42AAFFFF658AF7B
S21400975010F1260F3FF4EDAE253020E710F1180F7C
S2140097603FF4E7AE05DC10F1200F3FF4E2AE19300F
S21400977015E710F1160F3FF4DCAEFFF611AF14300C
S2140097803DE710F10C0F3FF43BAF10DC10F1100F6B
S2140097901FD004DC10F1120F06D01130FFE60E3099
S2140097A03FF42EAF3FF72CAF6FF094007047821D4A
S2140097B03FF426AF05DC10F10A0F3FF421AF083066
S2140097C0D4E6831C3FF4C2AE00283FF4DDAE04307E
S2140097D015E76FF08C007047F8B5C46906460F466B
S2140097E0154664B911460120FFF763F8F06148B1E9
S2140097F035622A4639462AF02CFD2046F8BD6FF021
S2140098008A00FBE76FF08C00F8E7F7B504460F46D2
S214009810164652B1038803F4E045B5F5805F07D0DD
S214009820B5F5005F04D05B0419D46FF0850014E032
S214009830B6F1005F4FEAC605F7D24FF6F8729542CA
S214009840F3D829461846FFF74DFC30B9324639465C
S2140098502046FFF7C1FF00B9658003B0F0BD44881D
S21400986002AB43F8044D00F06EFDF6E738B504464B
S214009870C06910B1216AFFF72BFC0025E069FFF7ED
S21400988028F8C4E907552422294620462AF005FD73
S214009890284638BD08B1FFF7E9BF704713B5044640
S2140098A0C0B101A900F0A6FF044698B90198436824
S2140098B01B0A12D10024019B1A792AB1986801F07C
S2140098C087F8002C08BF04460198FFF7CFFF002C4E
