:1000000020130020452C0000E3050000E91100004A
:10001000CF0600000F0800004308000000000000A9
:10002000000000000000000040000000F31300008A
:10003000E72A000080000000F72A0000A32B000040
:1000400007B0CD5E0100000000000C01AC2D0000E7
:100050000040000000001000F0001000EB13000052
:10006000EF130000351B0000632C0000952C0000EE
:1000700000000000CF2C0000332D00000000000025
:1000800013B779FAC925DDB7ADF3CFE0F1B614B8EF
:100090000101000002000000A82D00004000000047
:1000A00000000C0100000000000000000000000043
:1000B0000000000000000000000000000000000040
:1000C00038B5012087490860874C40F6AA62E26093
:1000D000002020600021616541F205006060A160A0
:1000E00061616164814A824B1A60824D2960A96115
:1000F0002961A960E96060602068206000F03AF939
:100100007D49096801230422C1F38021491CB0FB09
:10011000F1F04FF4E111400100F56120B0FBF1F185
:100120007648203900EAC10060610521002000F016
:1001300071F9012301220621002000F06BF914203F
:1001400028604FF4A021A9614FF4C0222A61012345
:1001500004220421032000F05DF90520E0606848D6
:10016000012101604FF0F0524260002303624363BB
:10017000C363036563494FF480220A606DA2C365BF
:100180000024920884659200C2665F4B4B605F4911
:100190004C600C6003215E4A11600124446402201B
:1001A0005C49086031BD70B50E4605461446802E88
:1001B00002D341F2031070BD00F025F810B941F2EE
:1001C000062070BD0020544902E02A5C0A54401CFD
:1001D000B042FAD3D1F88000761E022266F30E10E8
:1001E000C1F88000803189084C488900816502602F
:1001F0003CB100F008F80028FBD0494801688A06A5
:10020000FBD5002070BD4749CA684148930703D514
:1002100002220A60026004E049688A0703D40221CE
:10022000016001207047002070473F48006840F29D
:100230000111884208BF002007D040F20221884205
:100240000EBF4FF480703949401A394A1168814213
:1002500001D10020704701D2401A7047C1F50071EA
:10026000401870472DE9F04107468846154600269C
:100270008BB1069C2CB100F00BF90021204600F058
:1002800020F9FFF7D2FF404505D2002CF9D000F04D
:100290002FF90028F5D0FFF7C8FF804505D8404664
:1002A00003E000230B6002211160864212D2204934
:1002B0000B681E4AD45C5B1C164ABC55761C0B604E
:1002C000B3F5007FEDD0B3F5807FEED10121EBE7F0
:1002D000BDE8F08105B12E60464534BF41F20420EF
:1002E0000020F5E70490054008800540FFFF01006D
:1002F00048A00540ACC5034070800040F8FF7F0077
:100300000400044000400440020004008C0004404B
:1003100034200440101004408000002048000440B5
:1003200018800540280004406C00044010010020A3
:1003300018030020F00F1003248005401001002056
:10034000130000000900000000010000020200008C
:1003500013000000F00F100324800540100200205D
:10036000130000000900000000020000010100006D
:10037000D3FFFFFF10B51449086800F007000328F9
:1003800008BF124A18D0124B1868C0F30440112855
:1003900028BF104A10D200BF11A2125C0E480F4CA9
:1003A0004243A24208D11B68012022461B0E03F0E3
:1003B00003039840B2FBF0F20868C0F30130401C20
:1003C000B2FBF0F010BD00007080004000F0490268
:1003D00008000140C0EA210140420F0000093D0031
:1003E0000400000700000D1013001A2026303840CA
:1003F000500000003022504310B50123214C04E08E
:100400003022504310B501231F4C03FA01F1204460
:10041000016110BDF8B5054617460E461C4638006A
:1004200007D0002C284602D0FFF7EAFF01E0FFF7D3
:10043000E1FF2A4630204243144988180F22082E33
:1004400005D24168B30000F015F8416006E0A6F15E
:100450000803C1689B0000F00DF8C1604FB9002C83
:100460003146284602D0BDE8F440C9E7BDE8F44073
:10047000C0E7F1BD9A4021EA020207FA03F11143F5
:100480007047000000E0034000D0034000C003407C
:10049000F8B5FFF76FFF4FF47A71B0FBF1F01E4A29
:1004A00022A1800A50606846102200F057F840F2FE
:1004B000FF30ADF802006946184800F0A3F805B017
:1004C00000BD30B5164BDD68134C626802FB00506E
:1004D000ADB260806088A8429241D20F227011B103
:1004E000D9688142FCD101200E4C2060186030BDDB
:1004F0000D490A68084B187802F0010210B122B9C0
:10050000002070470AB10120704708695988884265
:100510008041C043C00F704710030020008004409A
:100520001880044014A0044014800440010000001E
:1005300000000000000000000000000062B38B0714
:1005400008D0521E11F8013B00F8013B00F0248056
:100550008B07F6D1830740F0208000BF103A07D305
:1005600030B4B1E83810103AA0E83810F9D230BCF5
:10057000530724BFB1E80810A0E8081044BF51F8A1
:10058000043B40F8043BD20724BF31F8022B20F88B
:10059000022B44BF0B7803707047121F17D35B0008
:1005A00009D151F8043B20F8023B1B0C121F20F824
:1005B000023BF6D20BE051F8043B00F8013B1B0A6A
:1005C00020F8023B1B0C121F00F8013BF3D238BF8E
:1005D000121D521E24BF11F8013B00F8013BF8D850
:1005E0007047FEE7324988421CBF324A904205D02C
:1005F000314988421CBF314A904201D101207047E5
:1006000000207047F8B504460D46FFF7EBFF204683
:1006100000F056F8012142F23002A150687895F8B6
:1006200004E00028A87A4FEA0E2E14BF40210021D2
:100630000028E87A14BF802200220028287B14BFFB
:10064000202300230028687B14BF102600260028E2
:10065000A87914BF082700270028B5F902004EEA40
:10066000804E687A14BF4FF4803C4FF0000C40EA93
:100670000E00014311431943314339434CEA010150
:100680006160012141F23002A150287808B90221AD
:10069000E16000226262697901B11021EA792B7A66
:1006A00043EA82031943A16008B10120E060F1BD73
:1006B0000080044000C004400000054000400540A8
:1006C000016BCA0702D501694A06F9D47047FEE7F3
:1006D00080B590B000F012F8B0F5A02F11B00CBFAB
:1006E0000B48002000BD80B590B000F007F8B0F5D1
:1006F000A02F11B00CBF0748002000BD00234022EE
:1007000069464FF4807000F04BB803487047000012
:100710004CE30F006CE30F0086E20F00426812B951
:1007200041607047526850680128FBD151607047A2
:10073000826812B981607047526850680128FBD105
:1007400051607047C269042A05D200EB8202D16071
:10075000C169491CC1617047C169042909D9704741
:1007600000EB8203DB68521C0B60C3699A42F7D32B
:1007700070474FF098410A6CD302FAD5C269121D36
:1007800092000A6502680A6042680A608368002273
:10079000EAE717480168C902FCD500697047000004
:1007A000002B2DE9F84E8BB0074614BF114D124DAA
:1007B0000E46144603A8202100F026F80FA02F4370
:1007C00090E8000E03976F4687E8000E009644F00D
:1007D00000540294694603A8FFF7AAFF03A8FFF795
:1007E000BBFFFFF7D6FF0CB000F47020BDE8F08E21
:1007F0004400004C01000AFF010008FF0000000057
:100800000100000000000000002200F001B8FEE737
:1008100000B500BF130096469446103928BFA0E8E3
:100820000C50FAD85FEA417C28BF0CC048BF40F8A2
:10083000042BC90728BF20F8022B48BF00F8012B62
:1008400000BDFEE700207047002070470020704781
:100850002421FFF7D9BF70B50D4604461646242162
:10086000FFF7D2FF802E1CBFC02EB6F5807F02D0CE
:100870006FF0710070BD2660F2082946201DFFF759
:100880005DFE002070BD2DE9F84791B00646306846
:100890000F46144680281D4618BFC02805D0B0F565
:1008A000807F18BF6FF071004AD109A82021FFF79F
:1008B000ABFF012F0FF2482191E88C000CBFDFF84D
:1008C0001002DFF810020990684680E88C00301DA5
:1008D000009030680FF2342206A9C00840F00050A2
:1008E000029092E8884009A881E888400FF2282108
:1008F000069491E8000703AC694684E80007039575
:10090000FFF70CFF06A909A8FFF708FF03A909A82C
:10091000FFF70EFF316809A800F01EF8102109A8A2
:10092000FFF710FF00F02CF950B909A8FFF714FFEA
:1009300000F009F804F47024002C0CBF00202046BD
:1009400012B0BDE8F087DFF890010168C902FCD55C
:10095000046900F01FB911A8C908FFF7F3BE000031
:10096000002A2DE9F64F99B014BF14680024002620
:10097000009000684FF0000A019180281D46249FD6
:10098000DDF89480DDF898901CBFC028B0F5807F1A
:1009900004D06FF01F008FE000F0A6F801988245A8
:1009A00080F08380002CF7D1A0EB0A005FEA101BD7
:1009B0005ED000BF63A611A85AA12022FFF7CEFD8A
:1009C00096E80E0008A84FEA0B1B80E80E0000997D
:1009D000081D089000990BA80A680EA9D20842F0D9
:1009E00000520A925AA292E8484081E848400E9587
:1009F0005AA191E84C000DF1140E80E84C000B95C3
:100A000059A090E80E0008EB0A008EE80E00059051
:100A10004BF00051079100BF56A393E8414002AA52
:100A200009EB0A0382E8414000F058F80EA900F0F3
:100A300058F805A900F055F800F041F80BA900F0AE
:100A40003FF800980168FFF786FF594611A8FFF7A5
:100A500079FE00F095F800282ED111A8FFF77CFE52
:100A600000F031F8066900F095F8DA4406F47026D3
:100A700016B120E000F038F80198B0EB0A008DD0F4
:100A8000002CF7D100983B462A460121FFF7FBFED8
:100A9000002041422944CA7B521CCA73D2B2002AA8
:100AA000E8D1401C0F28F4D9E4E71A9800B104609B
:100AB0000EB9002000E030461BB0BDE8F08F02A95F
:100AC00011A8FFF735BE04480168C902FCD570477C
:100AD00000010004000101044400004C0293049151
:100AE00008A911A8FFF71ABE18F80A10385D641C8F
:100AF00004F00F04414009F80A100AF1010A704796
:100B000000000000010000000000000000000000E4
:100B100001000000100000200000000001000000A3
:100B2000100000200303000400000000000000008B
:100B300000000000000000000000000000000000B5
:100B400000000000000000000100000000000000A4
:100B50000000000001000000100000200000000064
:100B60000100000010000020000000000100000053
:100B70000000000000000000010000000000000074
:100B800080B5FFF75FFE10B9FFF75EFE08B14FF0CA
:100B9000FF3002BDFFF75ABE1CB50123042200F04E
:100BA00023F80021009102E00098401C009000987A
:100BB0006428F9DB0123022200F017F8002001E08D
:100BC0000098401C00900098B0F5FA7FF8DB0549CA
:100BD0000C680123002200F007F804F0010484F0FF
:100BE000010016BD44C0034000210120FFF712BCE4
:100BF00070B5DFF84021DFF84031DFF8404124686C
:100C000065070CD4C60701D41C4209D100EA0405CB
:100C10008D4208D0521EF0D16FF0020070BD06E088
:100C20006FF0010070BD1C42FAD1002070BD4FF082
:100C3000FF3070BD70B541F67131414C0122424B1D
:100C4000E568E1621A6060600226266000212120CA
:100C50002D0CFFF7CDFF05F00105010003D10021A8
:100C60002120FFF7C5FF0121364A11600DB1002197
:100C7000E16270BD2DE9F047DFF8D0800125C8F8AA
:100C800000504FF45026324F47F82060302646433C
:100C9000304D0027354441F671346F60AF60AF616D
:100CA0002D4E3769346334683F0C07F0010744F078
:100CB00001043460012404FA00FC22E0B1603469CC
:100CC000640729D44FEA9E04641E240144F0605452
:100CD000EC602A61214C6C61C8F820C0204CD4F82B
:100CE000009029FA00F95FEAC97AF8D51D4CC4F8DA
:100CF00000C0C8F824C00424746071447244A3EB9B
:100D00000E0363B101F50054640B6403A4EB010E00
:100D10007345D3D29E46D1E74FF0FF3007E03068ED
:100D20004008400030600FB1002030630020BDE873
:100D3000F087000080969800020001001C0003402C
:100D4000100003400C2003400C100340041004402A
:100D500000400440580004400C00034018000340C9
:100D60003400044034200440054909688A0902F02F
:100D70003F0201F03F0382704370090B017070471E
:100D800014C007402DE9F84F5FEA00080E4698B0FE
:100D900017461D4618BF002E00D017B940F201605B
:100DA00060E0229C002D10A836A116BF002CDFF8B1
:100DB000BC90DFF8BC902022FFF7D0FB494610A87A
:100DC000FFF7C0FC202110A8FFF7BCFC35A292E879
:100DD00008500DA9002D81E808500D9534A191E827
:100DE000010C0DF1280918BF002C89E8010C0A94A8
:100DF00005D00DA900F042F80AA900F03FF800BFA5
:100E00002EA191E81C0007A807A980E81C00CDF8D6
:100E10001C8000F033F800BF2BA191E81C0004A84F
:100E200001AD80E81C0004962AA696E8004304A9B8
:100E300010A885E800430197FFF770FC01A900F0B6
:100E40001DF810A8FFF788FC0A4800900A480168BE
:100E5000C902FCD5006900F470200090009808B128
:100E600040F2046019B0BDE8F08F00001F24FC843C
:100E70001F240080785634124400004C10A8FFF75D
:100E80004DBC000000000106000000000000000052
:100E90000000000000000000000000000000000052
:100EA0000000000000000000010000002000002001
:100EB00000000000010000002000002000000000F1
:100EC00001000000200000200000000001000000E0
:100ED0002000002000000000010000002000002091
:100EE0002DE9FC478A461446984670B9002C43D039
:100EF0000B990A683F2A0AD84868002818BF5FEA99
:100F0000080905D10FF24C1902E0424835E0C1460C
:100F100002F03F06A218C6F140050A60A24202D2C2
:100F20004868401C48600A9F96B1AC4210D32A46DC
:100F30005146B819FFF702FB0120009043463A469C
:100F40004946002000F0B6F8C146AA44641B0026BA
:100F50003F2C0BD9A509009543465246494600202F
:100F600000F0A8F80AEB851AA4EB851424B12246F8
:100F70005146B819FFF7E2FA0020BDE8F6870000F5
:100F8000F8B586B00C4615461E4640BB002102AFA0
:100F900056F821304A429200D21D00EBC300B854EB
:100FA00002A8104456F82120C01E5209827056F83B
:100FB0002120520B427056F82120520D027056F833
:100FC0002100491C400F0129E2D9327802F03F028A
:100FD000382A34BFC2F13802C2F1780201E00D486C
:100FE00016E00C9F019600954FEA040321A1002012
:100FF000FFF776FF019600952346082202A90020FC
:10100000FFF76EFF202221463846FFF797FA0020AF
:1010100007B0F0BD80AFFFFF6821FFF7F5BB0021EF
:10102000016041600020704700F12803E0B50093A3
:10103000019000F108030020FFF752FF0EBD80B5BC
:101040000346009103F1280203F108010020FFF795
:1010500097FF02BD6A09E667BB67AE853C6EF37217
:10106000A54FF53A510E527F9B05688C1F83D9AB73
:101070005BE0CD19800000000000000000000000CF
:101080000000000000000000000000000000000060
:101090000000000000000000000000000000000050
:1010A0000000000000000000000000000000000040
:1010B000000000002DE9F04F91B004460E4617469F
:1010C0001D4609A82DA12022FFF748FA33A191E877
:1010D000010C0DF1180800BF33A288E8010C069737
:1010E00092E8884003A981E8884000BF31A10396B7
:1010F00091E800076E4686E8000700959CBB0998BA
:101100001A9C40F480600990A10109A8FFF71AFB1E
:10111000089803A940EA84140894059840F0200038
:101120000590029840F02000029009A8FFF7F6FA17
:1011300006A909A8FFF7F2FA694609A8FFF7F8FA25
:10114000FFF71EFD80B909A8FFF706FB08480168F4
:10115000C902FCD50469FFF71DFD14F4702F0CBF04
:101160000020044800E0044811B0BDE8F08F000002
:101170004400004C80ADFFFF80AFFFFF0000010383
:10118000000000000000000000000000000000005F
:10119000000000000000000000000000000000004F
:1011A000010000000000002000000000010000001D
:1011B00000000020000000000100000000000020EE
:1011C00030B5084B01241C6000255D60DA609C602E
:1011D00002E010F8014BDC610A46511E002AF8D1EA
:1011E000186A30BD048008404FF4017000F0C5B8A3
:1011F0001CB56846FFF7B8FD4D48816ACA0311D493
:1012000041686FF3162141F4B81141F40541416082
:10121000016821F4704141F440410160026842F4E8
:10122000E06202609DF80100012804BF9DF8000003
:10123000002807D14FF0005106200A6801F58041CF
:10124000401EFAD13B48016841F00301016000F003
:10125000CCF800F08CF800F0D3F800F0D3F818B117
:101260004FF4017000F089F800F0EAF8044600F04D
:10127000C3F9002C19BF40F20370844240F20120F0
:1012800000F07BF840F2057084421BBF40F206710B
:101290008C4240F203204FF4017000F06EF8002001
:1012A00016BD000080B5012100F04BF82249086806
:1012B00042060AD500F078F840F20221401A07D021
:1012C000C01E05D0C01E012802D9FFF765FC08B179
:1012D00000F036F844F20400016811F1010F05D165
:1012E0004FF4027000F034F800F02AF89DF8010085
:1012F00060B14FF4804000F01DFC8DF800009DF8B7
:10130000000018B94FF4027000F022F89DF80000B8
:1013100068B14FF48041094801600A4610460168EF
:1013200081F3088881F3098840688746FEE701BD9C
:1013300030C00040808000409440004008ED00E054
:1013400000218DF800108DF80110704700207047C3
:101350004FF000514A8808804FF6F07002404AF67C
:10136000C0339A421CBF4FF20F024A8070474CF2C2
:101370003C30FFE709490880704780B5FFF7E8FF78
:10138000BFF34F8F06490A68064802F4E062024341
:101390000A60BFF34F8F00BFFDE70000020000208E
:1013A0000CED00E00400FA0510B54FF00052508833
:1013B0004FF6F0714AF6C03401EA0003A3421CBFA5
:1013C0004FF20F03984201D1108810BD002804BFCE
:1013D0001088012802D140F2022010BD4FF40070A5
:1013E00010BD4FF00050008870470020704700206B
:1013F0007047FEE701790122C01C091DFEF7D3BE2C
:10140000FEF75EBE80B5C2B0FFF7EBFFB0F5027F1E
:1014100006D1684679A100F0EBF86846FFF7EAFFCD
:101420004FEA0D00B7A100F0E3F828210A680DF19A
:101430000700936803606846FFF7DCFF43B000BD18
:1014400070B5ADF5886D8CA80FF2C03100F0D0F802
:101450000DA80FF2C0411022FFF780F802A80FF28A
:10146000C4412C22FFF77AF845A84FF48E71FFF79C
:10147000CBF92BA86821FFF7C7F911A86821FFF75E
:10148000C3F9202311AA2BA945A800F0CCFD40F6F2
:10149000033540F2022608E0012100228DF83612C1
:1014A000ADF837228CA8FFF7A5FF4FF48471CEA8C2
:1014B000FFF7AAF9FEF7B9FE0028FBD04FF47A70C7
:1014C0000090CEA8012301AA0121C01CFEF7CAFE8C
:1014D0009DF83B032028EDD14FF47A710091012350
:1014E00001AA0321CFA8FEF7BDFE01980328DCD195
:1014F0009DF83C4374B140F6B8300090CFA801236A
:1015000001AA2146C01CFEF7ADFE0199A14208BF09
:101510000028CAD19DF83D030028C6D19DF83E039E
:101520009DF83F330328C0D8DFE800F05403041AC5
:10153000BBE7B1E70DA90091D0AA02A945A800F028
:10154000B5FD022100288DF836121CBF41F20701BB
:10155000884212BFADF837520022ADF83722A1E71A
:1015600003208DF836029DF80A0000281CBF9DF864
:101570000B0000288CA81ABF0021ADF83712ADF877
:101580003752FFF737FF9DF80A0000281CBF9DF86F
:101590000B00002889D09DF8080041070CD50C9855
:1015A00000F042FB20B101F0F8F900F06DFB7CE7A0
:1015B0003046FFF7E2FE78E78107FCD52820026875
:1015C00003989168814204D201F0E7F90B9900F089
:1015D000F1FA6AE79DF80A0028B19DF80B0010B9EE
:1015E00040F20320E5E7012BE2D040F20120E0E7E2
:1015F0004FF48472FEF7B2BF70470000000000A0F5
:10160000020001030B0000000000000000000000C9
:1016100000000000000000000000000000000000CA
:1016200000000000000000000000000000000000BA
:1016300000000000000000000000000000000000AA
:10164000000000000000000000000000000000009A
:10165000000000000000000000000000000000008A
:10166000000000000000000000000000000000007A
:10167000000000000000000000000000000000006A
:10168000000000000000000000000000000000005A
:10169000000000000000000000000000000000004A
:1016A000000000000000000000000000000000003A
:1016B000000000000000000000000000000000002A
:1016C000000000000000000000000000000000001A
:1016D000000000000000000000000000000000000A
:1016E00000000000000000000000000000000000FA
:1016F00000000000000000000000000000000000EA
:1017000000000000000000A0040000000000000035
:1017100000000000000000000000000000000000C9
:1017200000000000000000000000000000000000B9
:1017300000000000000000000000000000000000A9
:101740000000000000000000000000000000000099
:101750000000000000000000000000000000000089
:101760000000000000000000000000000000000079
:101770000000000000000000000000000000000069
:101780000000000000000000000000000000000059
:101790000000000000000000000000000000000049
:1017A0000000000000000000000000000000000039
:1017B0000000000000000000000000000000000029
:1017C0000000000000000000000000000000000019
:1017D0000000000000000000000000000000000009
:1017E00000000000000000000000000000000000F9
:1017F00000000000000000000000000000000000E9
:1018000000000000000000000000000000000020B8
:1018100002000000000000000000000000000000C6
:1018200000000000000000000000000000000000B8
:1018300000000000000000000000000000000000A8
:101840000000000000000000000000000000000098
:101850000000000000000000000000000000000088
:101860000000000000000000000000000000000078
:101870000000000000000000000000000000000068
:101880000000000000000000000000000000000058
:101890000000000000000000000000000000000048
:1018A0000000000000000000000000000000000038
:1018B0000000000000000000000000000000000028
:1018C0000000000000000000000000000000000018
:1018D0000000000000000000000000000000000008
:1018E00000000000000000000000000000000000F8
:1018F00000000000000000000000000000000000E8
:1019000000000000000000000000000000000000D7
:1019100000000000000000009B1A00000000000012
:10192000C31A000000FF00000000000000000000DB
:1019300000000000000000000000000000000000A7
:101940000000000000000000000000000000000097
:10195000F8B50446600B0D461646B4EB403004BFA4
:10196000204601F022F804F500577F0B7F0304E0C6
:10197000384601F01AF807F5005730198742F7D3B7
:1019800032462946204601B00223BDE8F04001F06E
:1019900010B838B504460D4600F0B4F850B160698F
:1019A000012805D1207C022802D2A069286002E02B
:1019B000002032BD2C60012032BDF0B504469DB040
:1019C00040F204600090656B00F0E4FF0746284693
:1019D00000F098F800285ED0287C02282CD200F075
:1019E000D1FF28B1286A012101F000F8002852D067
:1019F00034200668304600F085F800284BD043F6C6
:101A0000C170864218D200208DF8040001A9284632
:101A100000F0EFFF00283ED002A92846FFF7B9FFEB
:101A2000002838D002983969884228BFA04203D3E1
:101A30000146AA48814201D300202CE003A800F00F
:101A4000DAFF02982146021B03A800F0DEFF03A87C
:101A500000F0DDFF029C00F093FF203450B19DF8B0
:101A6000040008B1A86B00E0B06B00F12401009104
:101A7000031D06E0FEF737FE0546FEF729FE034686
:101A800000950299224603A8FFF77CF90090009880
:101A9000401E8041C00F1DB0F0BD70B504460D461C
:101AA000164600F077FF01698C4222BF4069321967
:101AB000904205D3324629462046BDE8704047E7AC
:101AC00070BD2DE9F04104468846164600F062FFDD
:101AD000074600F062FF25187019804988420ED22F
:101AE0003CB900F05AFF796988423CBF386900F080
:101AF0005CFF324641462846BDE8F04128E7BDE894
:101B0000F08100007FB504464FEA0D007BA1102252
:101B1000FEF724FD002046420DEB0605E97B225C22
:101B2000914205D1401C1028F5D3012004B070BDAE
:101B30000020FBE7F8B5044625686768666B00F08F
:101B400029FF05F1604566498D4229D20069874227
:101B500026D362498F4223D24030864201D38E423F
:101B600005D3FFF7F3FB401E8041C00FF2BDFFF726
:101B7000EDFBB8B93046FFF7C5FFB8B1307C02289D
:101B80000ED2706990B102280CD1B0694FF0FF32CB
:101B9000001D011B2046FFF713FB5249884205D068
:101BA0000020F2BD2046BDE8F24006E70120F2BD6C
:101BB0000000000070B590B004460D464FF0FF32B3
:101BC000FFF7FEFA474B984213D168464FA100F049
:101BD00057F800F08FF8294600F08DF86846FEF7B8
:101BE000BBFD414E3068C002FCD5306910F4702F47
:101BF00002D0002010B070BD00F0FAFE40F20220CA
:101C0000FFF7A6FB0DF1200048A100F039F800F025
:101C10006DF8294600F06BF808A8FEF79DFD3068C6
:101C2000C002FCD53169E4E72DE9F8438CB00446E5
:101C30004FF0FF35009504A844A100F021F800BF43
:101C40004AA696E8800301AD01A985E88003CDF896
:101C500004D004A8FEF76CFD04A8FEF77DFD224821
:101C60000168C902FCD5006910F4702F18BF00206C
:101C700003D10098A0428041C00F0DB0BDE8F083B1
:101C80002022FEF76BBC000038B590B004466846D1
:101C900039A1FFF7F5FF00F02DF86846FEF75CFD6F
:101CA000114D2868C002FCD5286910F4702F11D19D
:101CB00040F20220FFF74CFB0DF1200036A1FFF7A8
:101CC000DFFF00F013F808A8FEF746FD2868C00201
:101CD000FCD52969002011B030BD000001001000C2
:101CE00001800100E320BBDE4400004C214608A82F
:101CF000FEF728BD21466846FEF724BDB814B6F1AC
:101D0000E0CFF3ADB7DD25C9FA79B713010005437C
:101D100000000000000000000000000000000000C3
:101D20000000000000000000000000000100064369
:101D300000000000000000000000000000000000A3
:101D40000000000000000000000000000000084348
:101D50000000000000000000000000000000000083
:101D60000000000000000000000000000000000073
:101D700001000000040000200000024300000000F9
:101D80000000000000000000000000000000000053
:101D900000000000000000000000034300000000FD
:101DA0000000000000000000000000000000000033
:101DB000000000000000000070B54B688C689C4279
:101DC00006D200F140021B1B14781B19412B01D3D2
:101DD000002070BD0D6853781478E4188B6804F007
:101DE0003F04EE5C06558C68641C8C6013785B1CA9
:101DF00013708C684B689C42ECD3012070BD90F846
:101E000040004A6889681018401A7047F8B584B0D5
:101E100014460026054601960096082302AA00F003
:101E200047F841F20306B0423BD195F8430005F173
:101E3000480738B100F037F83868082302AA02A929
:101E400000F00EFE9DF80A209DF80B009DF8091089
:101E5000120442EA00629DF8080042EA01220243AD
:101E600022609DF80E009DF80F1000F07BFD9DF89C
:101E70000D1040EA01209DF80C100843606095F8B1
:101E8000430048B9DFF86C1A8A421CBFDFF8680AC1
:101E9000824201D000F007F860680021F960B86064
:101EA000304605B0F0BD7868082202A900F0ADBD4B
:101EB0002DE9F0410C4617461D468046FFF79FFF6F
:101EC00008F14006A84206D221464046FFF774FFBB
:101ED00010B300204DE000210CE0707818F80020CD
:101EE0007A5473783078491C5B1C03F03F03421E20
:101EF00073703270307808B1A942EED3A06862687E
:101F0000904238BFA9420CD22368185C7854A2686A
:101F1000491C521CA260F1E71520B07141F2020089
:101F200027E0A942F8D1B26C069C29463846FFF753
:101F300047F9B06424B1F0682A46394600F065FDDF
:101F4000079838B1F07878B1B0682B463A463946F0
:101F500000F086FDF07838B1B169F0692818884240
:101F6000F06124BF0020F07070692D18756141F296
:101F70000300BDE8F0812DE9F8431E467368002B8D
:101F80004ED00C4614F0030118BF41F2020048D1B4
:101F90001546074600F0FAFC396E001D6A188242A9
:101FA00021D300F1180399421DD28C46844505EBDC
:101FB000010800F1180238BF84469045ACEB0101DE
:101FC000ACEB000088BF904604EB0109A8EB0C08BD
:101FD0003844424649466830FEF7B0FAFF2241468F
:101FE000484600F04DFD00F0D8FC396E001D8842D7
:101FF00022BF6A18031D9A4209D3411A6018026869
:1020000007F180010A60FF22042100F039FD21461A
:102010003368386E74682A46A047386E2D183D66BE
:102020000020BDE8F283F8B5064606F1400700201F
:102030000D46B8717870F870387100214FF0FF309C
:1020400014463970797103F02003B86439627962FB
:10205000BB70FF22182106F1680000F011FDFF227D
:10206000042106F1800000F00BFDFF22042106F19F
:10207000840000F005FDBD60FC60882106F1900041
:1020800000F032FD002086F8180100F077FC00B166
:102090001DB100F071FC18B114B941F20B00F2BD92
:1020A00014B1F86800F0A7FC0020F2BD2DE9F84F4C
:1020B000B4B083460D4605A800210023002480E823
:1020C0001A000592349A089141F203080692486B6F
:1020D0000990014643F6C17081420BD3CEE30498C8
:1020E0000021F160B0600398DFF8101888424CD1ED
:1020F00002223A71079834990DF1280A884280F03B
:10210000A0830BF1420739790BF184090BF14806E2
:102110001529EFD8DFE811F02C009903FE003900F3
:10212000D10105024801A1030502F1010502980150
:102130000502F101B503D0034803C0031700C30330
:10214000A503D003D6E79BF818010028D9D1099A36
:102150001AAB05A9584600F023FC0090009841F204
:102160000601884200F02E8300984045C2D072E3F9
:1021700000F0E5FB00F0E8FBB1D06CE3B87838B1D3
:102180000398DFF8741788424ED015223A7175E330
:102190003878C10751D5787800284ED10398DFF8F8
:1021A0005C1788421CBFDFF858178842EDD0DFF873
:1021B0005417884200F08180DFF84C1788421FBF17
:1021C000DFF848178842DFF848178842DDD0DFF88B
:1021D0004417884221D0DFF81C17884272D0DFF8FC
:1021E0003817884212D0DFF8341788420CD0DFF855
:1021F0000817884214D0DFF8281788421CBFDFF880
:1022000024178842C1D010E0102272E711203871E3
:10221000B1680020706131616CE71521397176E099
:1022200000F0AAFB0028B0D142E01520387103A8C5
:1022300000F05DFC00286AD020E30398DFF8C016A8
:10224000884220D0DFF8BC16884233D0DFF8B816B9
:1022500088421DD0DFF8B416884216D0DFF8B016D9
:10226000884218D0DFF88C16884228D0DFF888160C
:10227000884216D0DFF8A816884210D0DFF8A416DE
:1022800088420AD020E00B2233E70420387131E77E
:10229000062139712EE70720F8E70921F9E70D201B
:1022A000F4E700F069FB002804BF78780028BAD171
:1022B0000E21EEE778780028B5D11221E9E7787889
:1022C0000028B0D11321E4E703A800F010FCB8B156
:1022D0000398142170643971039800F00AFC089087
:1022E00038788106D6D5089800281CBF4168002997
:1022F000D0D058468847009000980028CAD0BDE248
:1023000078781521397110B141F204009AE241F256
:10231000080097E2F068082849D2002101200191C5
:10232000009000F023FB00F00FFB49D19AF8030066
:102330000006B0F1407F04D01520387141F2090049
:1023400080E29AF805009AF8041041EA002102910F
:10235000C90704D5387840F00100387002E000F079
:102360000DFB30B900F008FB0028D3D00298C1055E
:10237000D0D41520387141F20A0063E21C220AA968
:1023800005F10800FEF7EAF8287840F0010028700F
:1023900005F1080000F007FB002803D0002100F041
:1023A000CAFA002800F05381B368F068984280F0C0
:1023B000468200F0BBFA00F0D0FA00F0C5FADDD09A
:1023C00049E2287840F0040028709AF80E009AF844
:1023D0000F109AF80C2000F0C5FA9AF80D1040EA98
:1023E00001201043A862687841072BD5EB208DF8B7
:1023F000280017218AF80110A6208AF802005E2121
:102400008AF803100BF150000168C9F80010002190
:10241000F161F87840F00200F8703E98C4688CB121
:10242000036804220AA90020A0473E983E9C082287
:102430000368F069D4F80CC00CA90830E047F069D3
:102440001030F0610C203871F068082837D200F0A5
:102450006DFA08230CAA00F081FA00F075FAB0D0EA
:10246000F9E1287840F0020028709AF802009AF802
:1024700003109DF8282000F075FA9AF8011040EA40
:10248000012010436860B068083868629AF8060056
:102490009AF807109AF8042000F064FA9AF80510E8
:1024A00040EA012010437FF470AEF97805203871BE
:1024B00041F00101F9700020F061F0680828BFF4D4
:1024C00019AE00F033FA00F051FA00F03DFAC8D02E
:1024D000C1E19AF802109AF803009DF82820090437
:1024E00041EA00619AF8010041EA0021114302919A
:1024F000B068052824BF0298B061F068042880F015
:10250000DE8100F013FA00F027FA00F01DFAE0D0A7
:10251000A1E10368F06952460AA9A047F069504456
:10252000F061B068F168814280F08981A0EB010A16
:10253000BAF1040F05A9584608D3FFF760FC042838
:1025400008D205A95846FFF737FC7AE1FFF757FC98
:102550005045F6D3BAF1410F05A9584628BF4FF0B0
:10256000400AFFF74CFC504502D200F0F1F98246D8
:10257000BAF1040F0AAA05A924BF4FEA9A004FEA4C
:10258000800A01200190009053465846FFF790FCC6
:1025900000F0DAF9BCD13879082803D13E98846874
:1025A000002CB6D1CAF10404BAF1040F06D20AA86D
:1025B000FF222146504400F063FAA24439790A29E7
:1025C0000ED13E99486818B100F0B4F900283ED009
:1025D0003E9B52460AA95846FFF7CDFC0090A0E763
:1025E000052917D16878820714D53E9BD86888B131
:1025F000F069052817D20AEB0001072913D30AA9AD
:10260000091D081A0168FF22C9F80010042100F012
:1026100037FA08E00C2984D168784107DFD53E9A63
:10262000D0680028DBD03E983E9C52460368F06993
:10263000D4F80CC00AA9E04770E7D9F804000028D4
:1026400000F03F8100F076F9002840F03A81152033
:10265000387141F20C00F5E03878810608D5002C7D
:102660001CBF2169002903D058468847824601E0F3
:102670004FF0010A00F06CF95045FFF462AFB0680A
:10268000F168A0EB010ABAF1410F05A9584628BF2D
:102690004FF0400AFFF7B3FB824502D300F058F930
:1026A0008246012001900090534600F056F900F058
:1026B0004BF915D13878810640F10481002C1CBFFC
:1026C000D4F808C0BCF1000F00F0D8804B46524649
:1026D0000AA95846E04700900098002800F0F280D0
:1026E000B9E0306C9049884204D015223A7141F229
:1026F0000500A7E000F040F910B90120E87002E001
:10270000E878002840D0F87810F0030F1CBFD4F808
:102710000CC0BCF1000F04D02368042249460420F9
:10272000E047B16900291CBF606800282CD04FF039
:10273000FF3102910BF180060422314602A800F01D
:10274000DBF940B100F029F928B131462368666809
:102750000422001DB04704220BF1680102A800F01A
:10276000CBF988B100F012F92368666814220BF1E6
:102770006C010830B04700F009F92368666804224C
:102780000BF16801001DB0470120A8700F213971BD
:1027900057E0FDF7BAFF00908021019130680123D6
:1027A0000BAA022100F036F9F068102847D2002168
:1027B000012001910090102300F0CFF800F0C4F840
:1027C000E7D048E01520387145E0706800F01FF947
:1027D0009BF8180128B10BF1B40100910BF194039F
:1027E0001BE000F0CDF888B1099812AA806B031D98
:1027F00000F12401009170680AA9FEF7C3FA009065
:10280000009880B100210091002306E0FDF76BFFE6
:102810000446FDF75DFF00940346706812AA0AA9FA
:10282000FEF7B0FA0090009830B10021E970152051
:10283000387141F2060005E00120E870B87001200F
:1028400024E5002035B0BDE8F08F00F078F800F006
:102850007BF83FF493AC0098F4E70020F061082186
:1028600017E53878DDF8F89081067FF5E6AE706CF4
:1028700000F03FF9089000287FF4DFAE41F201003C
:10288000E0E73E9C00200190009000F065F800F029
:102890005BF83FF426AFDEE701207870CFE7B87829
:1028A0000028CCD1002101910090402300F055F880
:1028B00000F04AF889D0CEE741F20700C2E70A20CB
:1028C000E4E4089CF068B1688842FFF4C5AECDF836
:1028D000F890089439788A06B1D5002C1CBFE268BC
:1028E000002AACD03E9958469047009000980028A6
:1028F000A5D0B0E7F70A0AF7FC0404FCEB17A6031F
:10290000EB17A65EF30B0BF3F40A0AF4F50909F5CD
:10291000F60808F6F70909F7F90707F9FA0606FABB
:10292000FD0303FDFE0101FEE320BBDE0121019159
:1029300000917047012105F1080000F025B803AAB5
:1029400005A95846FFF762BA0090009840457047C5
:1029500005A95846FFF753BA04230AAA05A9584601
:10296000FFF7A6BA000440EA0160704708230AAAEC
:1029700005A95846FFF79CBA002070470020704711
:102980000020704700207047012070472820016810
:10299000086970472820006870474FF4004070476E
:1029A00041F2060070470120704780B5FEF742F9FA
:1029B00018E010B51C46082C08D20AB9012010BD39
:1029C00010F0030F08BF12F0030F01D0002010BD5C
:1029D00013460A4601462046FEF74CF9401E804148
:1029E000C00F10BD401E8041C00F02BD00207047C7
:1029F00070470120704710B50446FEF70DFB2046D6
:102A00000021BDE81040FEF70ABBFEF70DBB0146F2
:102A1000FEF715BB2DE9F84380460E4691461C464D
:102A2000089D099F08F12000FDF712FF3A4629464C
:102A300008F12000FDF70FFF08F1440000210160BC
:102A400006750C22494608F15900FDF777FD08F19B
:102A50006500210C220A017042708470BDE8F18388
:102A60003EB51C460292019100F1480500F1580361
:102A700000F14402009521462030FDF771FF37BD7B
:102A800062F30F2262F31F42401810F0030308D0D4
:102A9000C91A1FD3DB0748BF00F8012D28BF20F853
:102AA000022D130030B414461546103928BF20E912
:102AB0003C00FAD8490728BF20E90C0048BF40F87D
:102AC000042D890028BF20F8022D48BF00F8012DF1
:102AD00030BC7047C91818BF00F8012DCB0728BFBC
:102AE00000F8012D7047FEE70022FFF7CDBF002060
:102AF000704700207047FEE70300002013F0030F2B
:102B000009D0521E22BF13F8010B11F801CBB0EB14
:102B10000C00F3D0704711F0030F14D1121F22BF25
:102B200053F8040B51F804CB6045F7D0121D0AD2BC
:102B300000BA9CFA8CFCB0EB0C0038BF6FF00000C0
:102B400088BF01207047521E22BF13F8010B11F8F5
:102B500001CBB0EB0C00F6D0521C08BF10467047FA
:102B60000448054908600548026842F470020260A2
:102B7000704700000000000008ED00E088ED00E074
:102B80004EF68851CEF20001086840F470000860EB
:102B9000BFF34F8FBFF36F8F4FF00070E1EE100A5D
:102BA0007047FEE700F00DF8002801D000F028F88B
:102BB000AFF300800020AFF30080FEF719FB00F0B8
:102BC00033F80120704730B4002513E050F8042B8F
:102BD000D30744BFA9F101039A18091F042942F839
:102BE000045BFAD213468C0744BF15809B1CC907AF
:102BF00048BF1D7050F8041B0029E7D130BC704756
:102C000010B5074979441831064C7C44163404E069
:102C10000A68081D114488470146A142F8D110BD39
:102C2000500100006C01000000F000B80746384673
:102C300000F002F8FBE700002021090326311820EC
:102C4000ABBEF9E780B5FFF78BFFFEF72BFBBDE8C6
:102C5000014000F000B8AFF30080FFF791FFFFF7ED
:102C6000A1FF10B50446B1F50A7F02D240F205205B
:102C700010BD4FF40A71FDF7C7FD0020607004F528
:102C8000D87204F5A47104F12C000023BDE81040B3
:102C9000FFF7C9B91CB504460091214604F12C0088
:102CA000FFF704FA0028C4F824021CBF41F2070110
:102CB00088420BD1A07838B1E07810B140F20320FF
:102CC00016BD40F2022016BD40F2012016BD2DE9CE
:102CD000F04385B004460D46904699460C9E01A8E7
:102CE0001021FDF791FD002737601C214846FDF7B4
:102CF0008BFD01A8009043462A46214604F12C0092
:102D0000FFF7D4F92078810744BF606830602178EC
:102D1000C80705D51C2204F108014846FDF71EFC32
:102D2000207805B0002814BF002040F20640BDE81E
:102D3000F0834FF40A70704730B501688468421818
:102D4000416802EB5103C9070BD54C4409E012F965
:102D5000011B12F8015B002904F8015B05D5491C31
:102D6000F9D19A42F3D10C3030BD491EF1D5F8E7C4
:102D700057FEFFFF0C0200001001002000000000C1
:102D8000B9FFFFFF0C0000002400000080000020BD
:102D900081000C00F07F1030800000203C80054056
:102DA000FC0000000000000021879567FFFFFFFF87
:102DB000FFFFFFFFFFFFFFFFFFFFFFFFFFFFFFFF23
:102DC000FFFFFFFFFFFFFFFFFFFFFFFFFFFFFFFF13
:102DD000FFFFFFFFFFFFFFFFFFFFFFFFFFFFFFFF03
:102DE000FFFFFFFFFFFFFFFFFFFFFFFFFFFFFFFFF3
:10400000C00A00200D4D0000094D0000094D0000C0
:10401000417B0000094D0000094D0000094D0000E2
:10402000094D0000094D0000094D0000094D000038
:10403000094D000078440300094D0000094D0000BF
:10404000094D0000094D0000094D0000094D000018
:10405000094D0000094D0000094D0000094D000008
:10406000094D0000094D00002D880000094D000099
:10407000094D0000094D0000094D0000094D0000E8
:10408000094D0000094D0000094D0000094D0000D8
:10409000094D0000FD520000094D0000094D0000CF
:1040A000094D0000FD530000D5530000094D0000EC
:1040B000094D0000094D0000094D0000C93D0300F5
:1040C000693D0300653D0300C9340300C53D03009D
:1040D0006D3D03008D3D0300713D0300491C03004D
:1040E000053E0300094D0000094D0000094D000088
:1040F000094D0000D9790000094D0000094D00006C
:10410000094D0000094D0000094D0000094D000057
:10411000094D0000094D0000094D0000094D000047
:10412000094D0000094D0000094D0000094D000037
:10413000094D000010B5054C237833B9044B13B179
:10414000044800E000BF0123237010BDA80F002029
:1041500000000000D074030008B5034B1BB10349F5
:10416000034800E000BF08BD00000000AC0F0020C5
:10417000D0740300154B002B08BF134B9D46A3F5CD
:10418000803A00218B460F461348144A121A30F029
:1041900084F80F4B002B00D098470E4B002B00D01B
:1041A00098470020002104000D000D48002802D08F
:1041B0000C4800E000BF30F009F82000290000F0B2
:1041C00033F82FF0EFFF00BF00000800C00A002006
:1041D0000000000000000000A80F0020F8320020BE
:1041E00000000000000000007047704738B54378B9
:1041F0000446012B05D0022B0AD0002201201146D3
:1042000002E0421C01780020BDE8384000F006BA08
:10421000451C01782A46002000F000FA2946207843
:10422000BDE8384000F0FDB908B504F01CFBFFF70D
:10423000DBFF04F025FBFFF7D8FF03F083FDF8E771
:1042400008B506480BF04EFE05480BF07DFE15F054
:104250001FFABDE8084019F073BD00BFA84603006F
:104260007446030000B5C3B00BF096FF0BF0BFFF20
:1042700048B100F00DFA30B101A824F066FC10B985
:1042800001A800F0D1F943B05DF804FB00F02BBDAC
:1042900008B50421002002F0AFF90721084602F01A
:1042A000ABF90721082002F0A7F907211C2002F032
:1042B000A3F90721242002F09FF90721252002F00D
:1042C0009BF9002008BD000007B501A802F09CFE84
:1042D000294B9B6DDB0318D4284A136823F4FF0392
:1042E00023F4FE4343F4BC1343F4A063136052F879
:1042F000043C23F4704343F4404342F8043C52F836
:10430000043C43F4E06342F8043C9DF80530012B83
:104310000FD19DF8043063B94FF000531B68184B60
:104320001B68184B1B68184B1B68184B1B68184BF5
:104330001B68184AD2F8803043F00303C2F880307B
:1043400003F046F900F0DFFC03F0F2F803F05EF949
:1043500003F0F6F803F022F9FFF79AFF03F0D7F81D
:1043600000F0CAFC01F05EF803F0FCFE03F058FC1C
:1043700003B05DF804FB00BF00C0004034C0004043
:10438000004000200080002000C00020000001202C
:10439000004001200080004000F080B808B503F024
:1043A000A7FF03F035F907F003FDBDE8084003F06F
:1043B00027BB08B503F070F803F07AF803F098F81B
:1043C000BDE80840FFF73CBF08B500F065FABDE85E
:1043D000084000F0AFB8704700F044BCFFF742BFA0
:1043E00000F0B8B8012070470120704710B50BF0FD
:1043F0003FFF044600F0B4F9002808BF002400F095
:1044000061FC002808BF0024FFF7ECFF002814BF60
:104410002046002010BD38B504F05AF904460BF0D0
:1044200035FF042825D002284FF0000508BF0124DD
:1044300000F0AEF904281ED0022808BF012400F0C5
:1044400037FC042819D0022808BF012401F07CFDA4
:10445000042814D0022808BF0124FFF7C5FF042850
:104460000FD0022808BF0124002D18BF00242046C9
:1044700038BD0125DCE70125E1E70125E6E7012557
:10448000EBE70024F3E7000018B1034B18600020AD
:1044900070472520704700BFE40F002010B5054C81
:1044A0000549206801F018FB2068BDE81040FFF7BF
:1044B000EBBF00BFF40A0020D00A0020014B1868AF
:1044C000704700BFE40F002038B502F0DCFA084C5A
:1044D00005462046002130F8022B2FF0DEFE002397
:1044E0002846238084F80631BDE8384002F0D1BA6E
:1044F000EA0F002038B502F0C6FA084C05464FF422
:104500008272A01C00212FF0C8FE002328462380C1
:1045100084F80631BDE8384002F0BBBA1C11002017
:10452000002208B511464A2023F0CAFBBDE8084026
:10453000FFF7CABF08B5FFF7C7FFFFF7DBFF00F0C3
:1045400005FA0022014B1A7008BD00BFE80F0020D9
:10455000012070472B4970B591F806312A4C3BB3C6
:104560002A4E327822BB94F806310BBBD1F80200F8
:1045700081F80631264A20F47F4323F00703934253
:104580002DD18A7932B3881DFFF730FE23F09AFFD0
:104590000546FFF799FF01232A683370130203F4DD
:1045A000E063C2F3072213432946181D00F0B4F953
:1045B00094F8063123B3154B1A780ABB84F8062108
:1045C0000122208813491A7000F0A6F9BDE8704056
:1045D000FFF790BF1146012023F068FED6E70E4A90
:1045E000934209D18B791BB1881D00F0D9F8CDE732
:1045F000012023F079FEC9E7063123F0CBFFC5E7A0
:1046000070BD00BFEA0F00201C110020E80F002041
:104610002000FF001E1100202000FF0180B223F0C7
:1046200045BE23F051BE0000F8B50646006820F4F0
:104630007F4020F0070000F017F928BB3046FFF755
:1046400087FF08B33368114D1C0204F4E064C3F320
:1046500007231C4302F017FA074628880434C0F5E4
:1046600082739C420BD802302246314628442FF0F8
:10467000F0FD2B881C4401232C8085F80631384638
:10468000BDE8F84002F005BAF8BD00BF1C110020DB
:10469000084A1388C3F58273984208D892F8063105
:1046A0002BB9054B93F8060180F0010070470020FC
:1046B000704700BF1C110020EA0F00200022014BB0
:1046C0001A707047E80F00202DE9F3419046044628
:1046D00000B1FEE78DB202F0D6F91E4F06463888CB
:1046E0002A46C0F582739D4219D8023041463844AB
:1046F0002FF0AFFD3B882B449BB2032B3B8018D996
:10470000D7F8021001240A0202F4E062C1F3072183
:104710000A4304329A4202D887F8064102243046FE
:1047200002F0B7F9022C06D10B4800F03BFA70B149
:10473000FEE70124F3E7012C09D10023074A009387
:104740004FF4FA71044800F047FA00B1FEE702B0F6
:10475000BDE8F081EA0F0020F410002021450000A0
:10476000084B93F8060150B9074B93F806311BB973
:10477000064B187880F0010000F00100704700201F
:10478000FAE700BFEA0F00201C110020E80F00200C
:1047900008B5FFF7E5FF00280CBF0420012008BD85
:1047A000F8B542780378012A19D006D3022A24D01A
:1047B0000120BDE8F84023F097BD052BF8D1284A29
:1047C0001378082B47D00021D0F802402548CDB2FD
:1047D000AB421DD840F823400133137030E0052B65
:1047E000E6D11F4C2378C3B30021D0F802501D48F6
:1047F000CAB2934215D82D20DBE7012BD8D1202255
:10480000002118482FF049FD0020154B1870D0E703
:10481000013100EB810555F8045CAC42D7D12E2064
:10482000C7E70E46013100EB810757F8047CBD4213
:10483000DED10021013B40F8261023709A4201DBB3
:104840000020B6E7541C50F8245040F8225040F89D
:104850002410E2B2F2E71C20ABE71B20A9E700BF5F
:10486000441200202412002010B5094B094C19787D
:104870000023DAB2914201D8002010BD013304EBCD
:10488000830252F8042C9042F3D10120F5E700BFD7
:10489000441200202412002038B54FF48272002107
:1048A00016482FF0FAFC4FF48272002114482FF0C2
:1048B000F4FCFFF703FE13490268134D8A42286097
:1048C00007D0124B9A4217D0A3F500439A4211D059
:1048D000FEE70D230E4A0F20137001F04FFD2B68E9
:1048E0000446186802F030FCB4FBF0F0094B80007D
:1048F000186038BD0B23EDE70F23EBE746120020CD
:104900005013002000C00540541400200000064051
:10491000451200204C130020B0F5827F10B50446EC
:1049200000D9FEE7024606482FF093FC0548064BE7
:1049300022460349006801F0D1FA00B1FEE710BD3C
:104940005013002054140020F54A000010B5164CF6
:10495000164994F9000002F0EDF894F90030002BAC
:104960000CDB012203F01F015B099B0003F1604394
:104970008A4003F56143C3F880211A600C4B0D4A4D
:1049800018680D4903685A6642F248029950DA6C79
:104990000A4942F42042DA64094B4FF4827201F072
:1049A00001FA00B1FEE710BD45120020C549000024
:1049B00054140020FF002400FFFF010046120020D5
:1049C000394B00002DE9F843484C23681B689B6C69
:1049D0001B0440F1898002F056F824684FF400412E
:1049E000236806465A6E22F4E0225A665A6E42F452
:1049F00080225A6642F24802995002F044F8636AF3
:104A000007469B889BB243B902F043F8FFF79EFF2D
:104A10003046BDE8F84302F03CB8E06800F004FC22
:104A20000023656A84F82C3002F02DF8AB889BB225
:104A3000002BE9D04FF01409B5F8028002F029F8F4
:104A40001FFA88F809FB08F808F110012944E0680A
:104A500000F032FC264B4544AB61656AAB889BB2E3
:104A600093B994F83130032B0CD042F2AC520421AC
:104A700023795B0103F1804303F5703399500222DF
:104A800023685A613846BFE701F0FDFFB5F804809E
:104A90001FFA88F8B8F1000F04D101F0FAFFD8F836
:104AA0000C30FFDEB5F802806B88E9885A1C92FB57
:104AB000F1F301FB13239BB26B80AB881FFA88F8DC
:104AC000013B9BB2AB8009FB085501F0E2FFD5F832
:104AD0001480B8F1000FC0D0EA682B690021D31A06
:104AE0002046AA68C047B8E7BDE8F8835414002000
:104AF000097000F0F8B507460D4600240C4E384604
:104B000000F02CFF830605D43268A3B29A4204F168
:104B10000104F4D8281C18BF0120FFF7CFFDBDE821
:104B2000F8404FF48272002102482FF0B6BB00BF5C
:104B30004C1300205013002008B5081C18BF01209A
:104B40001946FFF7C1FDBDE808404FF4827200210D
:104B500001482FF0A2BB00BF461200200021094AE5
:104B600013684BB1834204D1036A49B10B6201203F
:104B7000704719461B6AF4E70028F5D018467047BD
:104B80001360F4E75814002091F8243033B901235E
:104B9000034A81F82430136801331360704700BF63
:104BA0005C14002010B5044690B103F0DBFB2046F6
:104BB000FFF7D4FF58B194F8240040B101F063FF2F
:104BC000044A1368013B136001F063FF002010BD2D
:104BD0002220FCE75C1400202DE9FF4104469046AA
:104BE0001F469DF828500E4609B9002D33D12046A6
:104BF000FFF7D8FF60BB84F8240003A93046A5B1B5
:104C000003F09CFC20BBCDE900002346134A039926
:104C1000204603F028FCD8B9114AC4E90687136876
:104C200084F8255073B9146010E003F087FC78B95C
:104C3000CDE900552346094A0399204603F0F0FBCD
:104C4000E9E713461A6A002AFBD11C62002323629B
:104C500004B0BDE8F0812120FAE700BF894B0000D5
:104C60005814002070B5104D2B681BB100260F4B57
:104C70001C6804B970BD94F8243093B101F003FFAF
:104C80002B6884F82460013B2B6001F002FF94F84C
:104C9000253013B92046FFF761FFD4E906312046DD
:104CA0009847246AE5E700BF5C14002058140020F0
:104CB000034B1B68002B0CBF01200420704700BF72
:104CC0005C140020024B1868B0FA80F0400970476D
:104CD0005C140020042208B511460123032001F0D2
:104CE000CFFF002008BD042208B511460023032091
:104CF00001F0C6FF002008BD08B5FFF7C7FABDE800
:104D00000840FFF7E7BF7047FEE7000008B500F076
:104D100013F8064A064B07498B4201D3FFF72AFADC
:104D200052F8040F43F8040BF6E700BFD4740300F5
:104D3000C00A0020A80F0020044B054A9A60D3F84F
:104D4000882042F47002C3F88820704700ED00E02C
:104D500000400000014B1868704700BFFC0B0020AA
:104D6000014B1860704700BFFC0B0020084B1B6F05
:104D700003F00703022B04D0032B05D0012B05D031
:104D8000FEE7044B18687047034BFBE70348704786
:104D900000800040FC0B0020000C0020002D3101A1
:104DA00008B5FFF7E3FF054B1B6FC3F30133013376
:104DB000B0FBF3F0024B186008BD00BF008000405C
:104DC000F80B00200048704700B4C404014B186879
:104DD000704700BF000C0020054B1860054B1B6F8F
:104DE00003F00703032B01D1FFF7DABF704700BFC1
:104DF000000C0020008000400020704700487047F1
:104E0000002D3101174B9868C0F304400C2826D8B8
:104E1000DFE800F0092525252525071B1D251F2175
:104E20002300114870479B6803F04073B3F1807F03
:104E300007D0B3F1007F06D00C4A002B08BF104604
:104E400070470B4870470B4870470B4870470B483A
:104E500070470B4870470B4870470B48704700205D
:104E6000704700BF0040014A405DC60000093D0098
:104E700080841E0040420F000024F400C0EA21019B
:104E800080BA8C010048E801005A62024FF40040E9
:104E900070474FF47A707047014B1868704700BF35
:104EA000040C002028231B68B3F5804F03D2196837
:104EB000064A914203D000230370836070470122A9
:104EC00002709A689B694260F7E700BF07B0CD5E49
:104ED00000230360704703680B60016070470000A7
:104EE000054A06491368184488428CBF4FF0FF33C7
:104EF00010601846704700BF080C00200080012099
:104F00002DE9F04F9B46584B85B01B7806468946E5
:104F10001546109F9DF844A0DDF85080002B00F04E
:104F20009280072A00F291800E9B002B00F08D806A
:104F30000F9B002B00F08980129BB3F5006F00F3EC
:104F40008480012801D1002F7FD0484B03EB05134B
:104F50001B7B002B7BD0464C1022002168462FF093
:104F60009CF904EB45141022B9F1000F5CD14946BD
:104F700020462FF092F9A37843F01003A370E37852
:104F800043F03003E370BAF1000F03D1DBB243F01A
:104F90000303E37036496A01129B885A013B63F3AD
:104FA0000E100E9B01EB020C8852CCF808300F9BC0
:104FB0009DF84C10CCF804309CF80330012E61F3BE
:104FC0008303CDF800B08CF8033042D113230CF1E9
:104FD000100ECCF80C309CE80F008EE80F006FF03C
:104FE0000301DCF81C20B9F1010F61F39F02CCF83A
:104FF0001C20CCF8147004D10F9BCCF80470CCF8B2
:105000001830002719492A018B1841F80280159A97
:1050100028465A609F605E732246694601F0ACFEE6
:10502000384605B0BDE8F08F002120462FF035F955
:105030001023A3700323E370BAF1000FAAD1DBB2EF
:1050400043F03003A5E70B48EBE70B48E9E70B48D3
:10505000E7E7B8F1000FD4D19CF8023068F30413ED
:105060008CF80230CDE700BFE0150020601400206E
:10507000E0140020028000F0018000F0078000F0C2
:1050800038B5104B05461B78BBB1C0B101F0FBFC35
:1050900000230D4901EB0312147B3CB92B60012363
:1050A0001460137301F0F5FC204638BD0133082B62
:1050B000F0D101F0EEFC0548F7E70548F5E70548B3
:1050C000F3E700BFE015002060140020048000F02A
:1050D000028000F0018000F0154B13B51868002322
:1050E00001908DF8043001F0CEFC124B1C7824B1F5
:1050F00001F0CFFC104802B010BD01221A7001F07F
:10510000C8FC0E4B01A81C731C7783F82C4083F855
:105110003C4083F84C4083F85C4083F86C4083F853
:105120007C4008238DF8073001F0FCFD2046E2E7C3
:10513000D8460300E0150020038000F06014002032
:1051400010B588B00E9C009207940D9C0246069400
:105150009DF8304005940B9C04949DF828400394DE
:105160000024CDE9013420460B462146FFF7C8FE56
:1051700008B010BD10B588B00E9C009207940D9C2D
:10518000024606949DF8304005940B9C04949DF8CB
:10519000284003940024CDE9013420460B46012128
:1051A000FFF7AEFE08B010BD08B50A4B1B785BB127
:1051B00007280BD8084B03EB00131B7B43B10021DE
:1051C00001F0A0FD002008BD0448FCE70448FAE710
:1051D0000448F8E7E015002060140020028000F089
:1051E000018000F0078000F008B50A4B1B785BB126
:1051F00007280BD8084B03EB00131B7B43B101219D
:1052000001F080FD002008BD0448FCE70448FAE7EF
:105210000448F8E7E015002060140020028000F048
:10522000018000F0078000F008B50A4B1B7853B1ED
:1052300007280AD8084B03EB00131B7B3BB101F096
:10524000EBFD002008BD0548FCE70548FAE70548E6
:10525000F8E700BFE015002060140020028000F095
:10526000018000F0078000F00D4B1B7893B10728F8
:1052700012D889B10B4B03EB00131B7B73B10A4BA4
:10528000DA6A012303FA00F010401ABF00200B7005
:1052900008707047054870470548704705487047D3
:1052A000E01500206014002000000440028000F09F
:1052B000018000F0078000F00B4B10B51B780C4606
:1052C00063B107280CD859B1084B03EB00131B7BC3
:1052D00043B101F0B3FD2060002010BD0448FCE79D
:1052E0000448FAE70448F8E7E015002060140020BD
:1052F000028000F0018000F0078000F02DE9F84303
:10530000174B1F6D5B6D1F4000D5FEE70126002582
:10531000144CDFF85480DFF85490374217D02368DC
:10532000C8F800609BB1A16862680131A16028469D
:105330009847637B012B0AD148B909EB4513197BC8
:105340001A7F60F3410160F3410219731A77013546
:10535000082D4FEA460604F11004DED1BDE8F883BB
:10536000000004406014002050200440E01400209D
:1053700070B504460125084E04B970BD94FAA4F036
:10538000B0FA80F005FA00F324EA030456F820305E
:10539000002BF1D09847EFE7E41500204FF00072A2
:1053A000044BC3F880211A604FF08062C3F880215B
:1053B0001A60704700E100E038B504460D4601F080
:1053C00062FB034B43F82450BDE8384001F061BB59
:1053D000E4150020084BD3F82404D3F8202410400F
:1053E00042F2204220F42A5020F02A004004400CCF
:1053F0009850FFF7BDBF00BF00C00340084BD3F873
:105400002404D3F82024104042F2204220F4AA4081
:1054100020F055000004000C9850FFF7A9BF00BF12
:1054200000C00340024B1968024B18680AF008B824
:10543000100C00200C0C00207047000070B5940088
:10544000224605460E462FF007F8431C02D018B13D
:10545000064800E0064870BD2246314628462EF038
:10546000E9FE0028034808BF0020F4E724E000F02C
:1054700021E000F010E000F013B5044601A801F0AF
:10548000C3FD9DF80630012223804FF48073002075
:105490006380054B9B680A3303F01F0302FA03F392
:1054A000636002B010BD00BF0080E00F01F0F0BCEF
:1054B00008B501F0E1FC002008BD10B5044644EA3F
:1054C000010313F00303084609D1934201D10020E0
:1054D00010BD54F8231040F823100133F5E7920073
:1054E00021462EF0B6FEF2E710B504462EF0BCFFC2
:1054F000431C02D018B10C4800E00C4810BD0C4B06
:1055000020469B680A3303F01F020123934023F0D7
:1055100003032344984201D10020EFE750F8042B05
:105520000132F7D00348E9E724E000F021E000F081
:105530000080E00F0EE000F008B501F09DFA014B8D
:10554000186008BD302D0020014B186801F098BA92
:10555000302D00200A460139014402F0A1BA04228C
:1055600003685A619A699207FCD541F2AC52102146
:1055700003795B0103F1804303F570339950704761
:10558000012203685A619A69D207FCD541F2AC52F4
:10559000042103795B0103F1804303F570339950D3
:1055A0007047000038B141B1013AB2F5006F0448CC
:1055B00038BF00207047034870470148704700BF5C
:1055C000037000F0027000F038B504460D4601F09B
:1055D0005AFAA28892B222B92A6001F05AFA064811
:1055E00038BD1422638802FB034308332B6001F0AB
:1055F00050FA0020F4E700BF0B7000F038B5044605
:105600000D4601F040FAA3889BB223B92B6001F04C
:1056100040FA0C4838BD14226388E18802FB03433A
:1056200008332B6063885A1C92FBF1F301FB1323B0
:105630009BB26380A388013B9BB2A38001F029FA4F
:105640000020E7E70B7000F02DE9F0410446174613
:10565000884601F018FAA388E28805469A4206D8DF
:1056600000233B6001F015FA1148BDE8F0811426D3
:105670002088324606FB0040414608302EF0E9FD06
:105680002288238806FB0242E18808323A605A1CCD
:1056900092FBF1F301FB13239BB22380A3882846DE
:1056A00001339BB2A38001F0F4F90020DDE700BFD5
:1056B0000A7000F090F83130022B0BD13022437F7A
:1056C00090F821005A43044B9B5823FA00F000F055
:1056D000010070470020704714C00340002313B539
:1056E0001C4A52F8234094F8211081420ED0013315
:1056F000042BF6D102B010BD0028FBD19DF8073075
:10570000002BF7D0A068FFF74FFDF3E794F8313096
:10571000022BEFD12046FFF7CDFF637E2076022BD0
:10572000E8D194F82E3003F0FF02002BE2D102A959
:1057300001F8012DA068FFF797FD237E1BB194F8B7
:105740002F30002BD8D00023A06884F82F30FFF72B
:105750004BFDCFE7641C002038B5044601F093F9F7
:10576000616B05460139616319B9044A012002F0F1
:1057700087FA2846BDE8384001F08BB91C47030082
:1057800038B5044601F07FF9636B054623B9012162
:10579000054A084602F074FA636B284601336363D6
:1057A000BDE8384001F075B91C4703002DE9F04110
:1057B000012790F8328086B004460E4680F82C709F
:1057C000B8F1000F14D1036803F12405FFF7D8FFE7
:1057D000094B0494CDE9028373683268CDE9007304
:1057E00061692B46E068FFF7C5FC06B0BDE8F081B3
:1057F000002380F82C30F8E7FD5D00000123F0B5B0
:1058000080F82D3090F8323089B004460E4663BBE4
:10581000056801F038F90DF11F01074615483C35C0
:1058200002F0E2FD40B99DF81F302BB1114802F0A3
:1058300099FD2046FFF790FF3846012701F029F92E
:10584000204684F83870FFF79BFF0B4B04940393BA
:105850000023029373682A46CDE9007321693368F7
:10586000A068FFF76DFC09B0F0BD002380F82D3073
:10587000F9E700BFE42D00207D580000F0B585B0A9
:1058800003A9906A1446FFF79FFE0646206801F0C0
:105890005BFC054602F04CFE24214143B1FBF5F1CF
:1058A00000252346CDE90055164A0131164802F07D
:1058B000B7FD164B9E421FD0039B1D619D6001F0FA
:1058C000E2F8039A0746D66826B1D2E900232946B2
:1058D0002046B04703A9A06AFFF790FEA06A83881C
:1058E0009BB263B103A9FFF76FFE03992046FFF750
:1058F00085FF384601F0CDF8012005B0F0BD84F8F1
:105900002D30F6E711590000E42D00200B7000F057
:1059100073B508680D46846914F0200407D0084662
:10592000FFF71AFF022385F8383002B070BD01F08E
:105930000BFC064602F0FCFD24225043B0FBF6F0BF
:10594000CDE90044411C2B46024A034802F068FDA1
:10595000EBE700BF11590000E42D002003689869AF
:1059600070472DE9F04104460F461546FFF71AFE31
:10597000064678BB152001F09DF88046A26A938800
:105980009BB213B194F82E303BB323689B6913F09C
:10599000020802D12046FFF7E2FD012384F83030EF
:1059A00094F8323033B93D44AF4220681BD183694B
:1059B0009B06FCD5B8F1000F0CD142F2AC5210217D
:1059C00023795B0103F1804303F57033995008227A
:1059D00023685A613046BDE8F081B8F1000FCED09F
:1059E000FFF78CFCCAE717F8011B01F07BFCDBE733
:1059F00010B5044680B190F82E302BB9FFF75AFE4F
:105A000010B9A068FFF7D0FB002094F82E300133C6
:105A1000DBB284F82E3010BD0048FCE7027000F0C5
:105A200010B50446A0B190F82E309BB190F82E30FE
:105A3000012B05D1FFF73EFE10B9A068FFF7D4FB9C
:105A4000002094F82E30013BDBB284F82E3010BDDC
:105A50000148FCE70148FAE7027000F0057000F029
:105A600037B590F831500446022D1ED1012190F82F
:105A70002220457E837F01FA02F23020154925B9A4
:105A800000FB031342F2100105E0012D07D100FBDA
:105A9000031341F210015A50002003B030BD247EA0
:105AA00000FB0313002CF4D1ECE7012DF4D1037EAD
:105AB00073B911238DF80730FFF79AFF2A460DF1CD
:105AC00007012046FFF74DFF2046FFF7A9FFE3E758
:105AD0001323EFE700C00340F0B504468BB0A34F9B
:105AE00003AE0D460FCF0FC697E8070086E8070004
:105AF0001CB99F4C20460BB0F0BD0DB99D4CF9E789
:105B00003C22002120462EF0C8FB00239A49636303
:105B10000A789A4B2AB9C3E90022C3E9022201227A
:105B20000A70002253F822108C420AD00132042A53
:105B3000F8D1002253F82210002940F0D08043F819
:105B400022402B7D286884F831300023206084F8BF
:105B500032302B7B2371012384F83830884B9842F4
:105B600040F0C280212384F82330864B23614FF418
:105B7000802300266361D5E9072362621680568080
:105B8000968084F82C60A3621E805E809E806B6885
:105B900003A90593EB8984F82D60ADF81C302B8A9E
:105BA00084F82F60ADF81A30AB7C8DF80C608DF85E
:105BB0001830EB7C8DF81E3005238DF8193001F07C
:105BC00019FB14212A7B704B287A03EB4217C7F884
:105BD000AC15A97A2E3240EA014C03EB4213C3F80C
:105BE00004C06A7AEB7A42EA034CC7F8BCC5E17795
:105BF00084F820306B7DE07622776377AB7D0422DA
:105C000084F82130EB7DA3772B7E84F822300123AA
:105C100001F036F80123022294F82010207F01F0D1
:105C20002FF894F83130022B75D13346012294F8C5
:105C30002110607F01F024F83346042294F82210EA
:105C4000A07F01F01DF8012394F82120607F114608
:105C5000CDE9003300F0BAFF00F015FF2E7D0746B6
:105C6000032E69D141F2AC5202212B7B04205B014F
:105C700003F1804303F57033995041F25C022968C7
:105C80008850297EEA7D42EA014241F2B8515A50D9
:105C9000A97D6A7D42EA014241F2B4515A504FF067
:105CA000FF3242F248032868C2502B7D032B0CBF01
:105CB0000521042101F058FA4FF440622B685A6123
:105CC000FFF70AFA002104F10800FFF7D9F90146AD
:105CD000002842D02D4C384600F0DBFE0AE70132A6
:105CE000042A7FF427AF04E7294B984207D12223E7
:105CF00084F82330274B23614FF4A02339E7264B48
:105D000098427FF4FBAE232384F82330234B236196
:105D10004FF4C0232DE7032B9ED1334694F8211076
:105D2000607F012200F0ACFF3346042294F8221079
:105D3000A07F00F0A5FF8FE7022EB0D194F82100DC
:105D40001749FFF739FBFFF729FB00236676A37697
:105D500023762046FFF784FEA1E704F10C00FFF74D
:105D60008FF904460028B6D0B4E700BF004703000F
:105D7000027000F0037000F0741C0020641C00200E
:105D8000008005400200040000C003400E7000F0D7
:105D900000C00540020005000000064002000600A9
:105DA000DD560000F0B587B004461646FFF7FAFB53
:105DB0000546E8B90493104BCDE901166A4601A9DE
:105DC000606A03960593FFF73FFC054680B994F897
:105DD0002C306BB92046FFF7D3FB0099FFF7E6FCA8
:105DE00094F83130032B03D025762046FFF738FE98
:105DF000284607B0F0BD00BF017000F073B5506ACF
:105E000001A91446FFF7E0FB05462046FFF7A4FC76
:105E10002F4B9D4230D094F83200019B002839D19D
:105E20002268916C11F4007129D02A499860196197
:105E300042F248034FF40071D15000F024FE019962
:105E40000646CD6835B14A688B682046D31A0A6881
:105E50000969A84701A9606AFFF7D0FB606A8588D5
:105E6000ADB2DDB101A9FFF7AFFB01992046FFF705
:105E70009DFC304600F00DFE012002B070BD906C1C
:105E8000C00507D51448996018614FF4807142F23B
:105E90004803D1E700221A619A60CEE70123204629
:105EA0002376FFF7DDFD94F8313084F82C50032B76
:105EB000DFD042F2AC52042123795B0103F180432D
:105EC00003F570339950022223685A61D1E700BF6D
:105ED0000B7000F00D7000F00C7000F0F0B587B0A2
:105EE00004461646FFF75EFB054638BB0493154B88
:105EF000039605932368CDE901169B699B0702D49D
:105F00002046FFF72CFB6A4601A9A06AFFF79CFB1D
:105F1000054698B994F82D3083B900F0B4FDA36A12
:105F200006469B889BB233B100992046FFF766FC7A
:105F3000012384F83030304600F0ABFD284607B02E
:105F4000F0BD00BF017000F00B4B30B51B788BB17A
:105F5000012000230546094C54F8232032B192F861
:105F60003810022904BF084682F838500133042B48
:105F7000F2D130BD0120FCE7741C0020641C00201D
:105F80002F4B984245D017D82E4B984238D007D87F
:105F90002D4B984234D02D4B984231D00020704781
:105FA0002B4B98422FD02B4B98422FD02A4B984204
:105FB000F4D12A4B586E7047294B984234D00FD8F1
:105FC000284B984228D0284B984229D0A3F5370374
:105FD000A3F5D8539842E1D1204BD3F88000704705
:105FE000224B984224D003F5740303F510539842D2
:105FF00022D01F4B9842D1D1184BD3F89000704754
:10600000164B986D7047154B186F7047134B586FB0
:106010007047124B986F7047104BD3F8840070474D
:106020000E4BD3F8880070470C4BD3F88C007047A8
:106030000A4BD3F894007047084BD3F89800704788
:10604000C0EA210100093D0040420F0080841E008B
:10605000405DC6000024F400C0CF6A000080E00F5D
:10606000006CDC020048E80180D543020090D003B8
:10607000007E560338B5124B0546D3F820310C4646
:1060800003F00703013B032B17D8DFE803F0020AF4
:106090000E12FEF75FFE042305B1286004B12370E1
:1060A00038BDFEF793FE0323F6E7FEF7ABFE0523AC
:1060B000F2E7FEF7A3FE0223EEE700231846EBE724
:1060C0000080004037B50C460021114B0191D3F8F8
:1060D0008031054603F00303022B0ED0032B11D0B1
:1060E000012B03D101A8FFF7C5FF0D210DB1019BC5
:1060F0002B6004B1217003B030BDFEF783FE052193
:106100000190F3E7FEF77AFE02210190EEE700BF6F
:106110000080004038B5104B0546D3F840310C469E
:1061200003F00303022B0BD0032B0DD0012B0FD157
:10613000FEF7ACFE082305B1286004B1237038BD1A
:10614000FEF7AAFE0723F6E7FEF7A3FE0923F2E710
:1061500000231846EFE700BF0080004038B5104B21
:106160000546D3F860310C4603F00303022B0BD035
:10617000032B0DD0012B0FD1FEF788FE082305B1AC
:10618000286004B1237038BDFEF786FE0723F6E7CA
:10619000FEF77FFE0923F2E700231846EFE700BF72
:1061A0000080004038B5134B0546D3F800320C464A
:1061B00003F00703013B032B18D8DFE803F0020AC2
:1061C0000E12FEF763FE082305B1286004B12370A8
:1061D00038BDFEF761FE0723F6E7FEF75AFE0923F6
:1061E000F2E7FEF7DDFD0C23800AEDE700231846F9
:1061F000EAE700BF0080004038B5134B0546D3F8EE
:1062000008320C4603F00703013B032B18D8DFE8E4
:1062100003F0020A0E12FEF739FE082305B12860CA
:1062200004B1237038BDFEF737FE0723F6E7FEF70B
:1062300030FE0923F2E7FEF7B3FD0C23800AEDE7F9
:1062400000231846EAE700BF0080004038B5104B35
:106250000546D3F840320C4603F00303022B0BD063
:10626000032B0DD0012B0FD1FEF710FE082305B133
:10627000286004B1237038BDFEF70EFE0723F6E751
:10628000FEF707FE0923F2E700231846EFE700BFF9
:106290000080004038B5104B0546D3F800310C465D
:1062A00003F00303022B0BD0032B0DD0012B0FD1D6
:1062B000FEF78CFD032305B1286004B1237038BDBF
:1062C000FEF7EAFD0723F6E7FEF796FD0623F2E761
:1062D00001230020EFE700BF0080004041F671324B
:1062E0000F4B10B5D969DA639A680E4C22F440124C
:1062F000A04288BF42F480129A600B4A0B4CD2F83D
:106300001832A04223F0020388BF43F0020301F4D5
:106310008031C2F8183211B10022014BDA6310BD8E
:1063200000000340C017530200C0074080F0FA028B
:1063300008B5FEF747FDBDE80840FFF7CFBF0000F6
:1063400002280CD007D8012814D10B4B186FC0F3CA
:10635000013001307047032807D00F28F4E7064BBF
:10636000D3F89000C0F30460F3E7034B186FC0F359
:106370008020EEE70020ECE700800040002307B516
:106380000193252817D8DFE800F0131A1D262B35B6
:106390003A3F44494E535866161A3F1616441A2679
:1063A0002B26351A3F26663A3A3A3A262626494E91
:1063B000FEF7DCFC0190019803B05DF804FBFEF7EA
:1063C000EFFCF7E7FEF7D2FC02460220FFF7B8FF2A
:1063D000B2FBF0F0EEE7FEF7E3FC02460320F5E740
:1063E000FEF7DEFC02460320FFF7AAFFB2FBF0F047
:1063F0004008DFE7002101A8FFF764FEDBE700218A
:1064000001A8FFF737FED6E7002101A8FFF782FEBB
:10641000D1E7002101A8FFF7A1FECCE7002101A8E8
:10642000FFF7C0FEC7E7002101A8FFF7E5FEC2E7BE
:10643000002101A8FFF72EFFBDE7094BD3F88030FC
:1064400003F00303022BBAD0032B01D00020B1E7E5
:10645000FEF7D8FCAEE7002101A8FFF7F7FEAAE798
:106460000080004002280AD002D8012804D07047DA
:1064700003280FD00F2815D1084600F02BB80A4A80
:106480000139D2F8903023F0F85343EA0161C2F8A1
:1064900090107047044A0139136F23F4806343EA74
:1064A00081211167704700BF008000400221032056
:1064B000FFF7D8BF08B50120FFF760FFBDE808402F
:1064C000034988428CBF022101210320FFF7CABF84
:1064D00080F0FA0210B50446FFF72AFFFFF7E6FF47
:1064E000074A013C106F20F4405040EA0430106726
:1064F000FEF756FCFFF7F2FEBDE81040FFF7DABFEB
:1065000000800040002307B58DF80730252822D8E9
:10651000DFE800F013212121212C32383E444A507B
:10652000566921213821213E212121212C21382188
:106530006932323232212121444A2E4B1B6F03F043
:106540000703013B032B06D8DFE803F00E020A0C19
:1065500004238DF807309DF8070003B05DF804FBB5
:106560000323F6E70623F4E70223F2E70DF1070120
:106570000020FFF7A7FDEEE70DF107010020FFF770
:1065800079FDE8E70DF107010020FFF7C3FDE2E721
:106590000DF107010020FFF7E1FDDCE70DF1070138
:1065A0000020FFF7FFFDD6E70DF107010020FFF700
:1065B00023FED0E70DF107010020FFF76BFECAE7CD
:1065C0000C4BD3F8803003F00303022B03D0032BD2
:1065D00005D00023BDE7FEF7E3FB0B23B9E7FEF789
:1065E00011FC0523B5E70DF107010020FFF72EFE92
:1065F000B1E700BF0080004070B50C46252849D89F
:10660000DFE810F0260048004800480048005C0021
:106610006D007E008F00A000B100C200D300E40036
:10662000480048007E00480048008F0048004800AD
:10663000480048005C0048007E004800E4006D000F
:106640006D006D006D00480048004800A000B100DA
:106650008B1E042B2FD8DFE803F02B1E032E2800FF
:1066600000250226FFF764FEFFF720FF604A136F44
:1066700023F0070333431367FEF792FBFFF72EFE69
:10668000FFF718FF35B9032C04D142F2280301218A
:10669000584AD15070BD41F228020121554B0326C2
:1066A0009D6A9950C5F34005DCE700250426D9E72B
:1066B00000250126D6E700252E46D3E78C1EE4B23E
:1066C0000B2C8CBF00214C4B494A98BF195DD2F866
:1066D000803123F003030B43C2F88031DAE78C1ECC
:1066E000E4B2032C8CBF0021444B414A98BF195D92
:1066F000D2F8203123F007030B43C2F82031C9E759
:10670000CC1FE4B2022C8CBF00213D4B384A98BF0D
:10671000195DD2F8403123F003030B43C2F8403136
:10672000B8E7CC1FE4B2022C8CBF0021354B304AB5
:1067300098BF195DD2F8603123F003030B43C2F810
:106740006031A7E7CC1FE4B2052C8CBF00212E4B93
:10675000274A98BF195DD2F8003223F007030B4394
:10676000C2F8003296E7CC1FE4B2052C8CBF0021A2
:10677000264B1F4A98BF195DD2F8083223F0070351
:106780000B43C2F8083285E7CC1EE4B2042C8CBF60
:1067900000211F4B164A98BF195DD2F8003123F033
:1067A00003030B43C2F8003174E705290CD00B2911
:1067B0000CBF022100210E4AD2F8803023F00303DF
:1067C0000B43C2F8803065E70321F4E7CC1FE4B245
:1067D000022C8CBF00210F4B054A98BF195DD2F8DF
:1067E000403223F003030B43C2F8403252E700BFAC
:1067F0000080004000C000402447030030470300F1
:10680000344703003447030037470300374703008A
:106810003D4703003447030008B5FFF773FE072820
:106820000ABF024B4FF6FF70188808BD300C0020DD
:1068300038B50546FFF7A4FB214B04465A68012AE8
:1068400005D142F204015A509A699207FCD1002006
:10685000FFF758FE042803D1FFF76AFDFFF726FE75
:10686000184B24F040709D4220D0174B9D4220D001
:10687000164BDA6812F0060FFBD1996898609A6897
:1068800000F4F81002F4F812904215D12846FEF7F1
:1068900067FA0020FFF736FE04280FD1FEF780FAD2
:1068A000FFF71CFDBDE83840FFF704BE40F0007064
:1068B000DEE740F08070DBE79960EAE738BD00BFB3
:1068C00000C0014040420F0080841E0000000140D3
:1068D00070B504460020FFF715FE03287DD045F66D
:1068E0000E03434A0221C2F8803041F22803D150FE
:1068F00042F228030121D150916D11F48031FBD176
:10690000637820781B0543EA0063A079657C034324
:10691000E07843EA0043207943EA0033607943EAB0
:10692000801313619369E07A03F000430343E07935
:1069300043EA8063207A43EA0063607A43EA0043D3
:10694000A07A43EA00239361637B126A002B18BF8D
:106950000821207B22F00D0243EA020343EA800370
:1069600041EA0301A27B224B4FEA42161962207CC6
:1069700034D1996AE27B21F0330141F001013143C6
:1069800041EA0211996219461A4A9E6D32EA0606D8
:10699000FBD141F2280202269E508B6D5B00FCD495
:1069A0000B69A27823F4700343EA02530B614FF0A2
:1069B000004241F21803CA5018B942F228030222D9
:1069C000CA5025B942F228030121094AD150A37CBB
:1069D0001BB1074B084AC3F8802070BD9A6A22F0A9
:1069E00033022A43324342EA40029A62EFE700BF91
:1069F00000C0004003000140F1A7FFFFF0B54FF4D5
:106A0000D156194B41788478C278057802275E62A6
:106A100041F204064F299F5142F204064FF001074C
:106A200028BF4F219F511E69F603FCD441EA05217E
:106A300059611201417942EA04220A43017942EA8A
:106A400041029A60C2798179120142EA4112417A87
:106A50000A43017A42EA41025A60827A12B16FF423
:106A6000D1525A62F0BD00BF00000240014B1880B5
:106A7000704700BF300C0020EFF3108072B67047F3
:106A800000B962B67047EFF31180302383F31188A9
:106A9000704780F311887047054A410900F01F03D1
:106AA00052F82100D840C04300F00100704700BFF9
:106AB00000E100E010B50446EFF31083DB0733D4A8
:106AC000FFF7EAFF00282ED1002CABBF04F1604491
:106AD000164B04F5614404F00F04ACBF94F8002396
:106AE0001A5D1209EFF3118313B1B2EB131F1BD21E
:106AF0000F4C6368C3F30803ABB1103BDBB259B270
:106B00000029B5BF03F00F0301F16043043B03F517
:106B10006143B6BF1B1993F80003187E0009824237
:106B200034BF0020012010BD0120FCE714ED00E07F
:106B300000ED00E0024B9B6803EB800001647047AE
:106B400000ED00E0F0B50024059D9DF818709C4212
:106B500002D10C4B9A60F0BD37B18C420ED250F886
:106B6000246042F8246005E08C4252F8246003D28D
:106B7000002EF4D00134EAE7002EFBD142F8245075
:106B8000F8E700BF00ED00E0084A10B513690446BD
:106B900043F00403136101F033FA30BF01F044FA0B
:106BA0001CB9BDE81040FEF7FBB810BD00ED00E0D9
:106BB000FFF7EABF704770474FF04022D36E01796C
:106BC00023F030030B43D36670470000072A2DE9FA
:106BD000F84305460C46174698461ED803264FEA4A
:106BE0008209FFF749FF1F4B05FA09F51A6806FAF3
:106BF00009F65540354055401D60FFF741FFFFF74E
:106C00003BFF194B04F003041A6804FA09F45440DA
:106C1000344054401C60FFF733FF144B144A9DF876
:106C20002010B8F1000F14BF98469046012202FAD6
:106C300007F7104A0433002908BF1346C8F800704C
:106C40001F6042F220430C4A9DF82410D7500B4B92
:106C500002F510522432002908BF13461F60BDE818
:106C6000F88300BF00C4034008C4034010D40340AD
:106C700010E4034014E4034000C0034024D4034064
:106C8000F0B54AB1012530241D4E8D4004FB00644F
:106C90000BB341F21006A55130244443072904F1F7
:106CA000804404F5703419D80F2765688E00B7400A
:106CB00025EA070502FA06F63543656052B9012256
:106CC00002FA01F130220E4C02FB0040A3B141F266
:106CD0001003C150F0BD42F21006DCE70F2701F1AE
:106CE0008045083DE668AD00AF4026EA070602FA97
